{
  "contractName": "StakingPoolV2",
  "abi": [
    {
      "anonymous": false,
      "inputs": [
        {
          "indexed": false,
          "internalType": "uint8",
          "name": "version",
          "type": "uint8"
        }
      ],
      "name": "Initialized",
      "type": "event"
    },
    {
      "anonymous": false,
      "inputs": [
        {
          "indexed": true,
          "internalType": "address",
          "name": "previousOwner",
          "type": "address"
        },
        {
          "indexed": true,
          "internalType": "address",
          "name": "newOwner",
          "type": "address"
        }
      ],
      "name": "OwnershipTransferred",
      "type": "event"
    },
    {
      "anonymous": false,
      "inputs": [
        {
          "indexed": false,
          "internalType": "address",
          "name": "account",
          "type": "address"
        }
      ],
      "name": "Paused",
      "type": "event"
    },
    {
      "anonymous": false,
      "inputs": [
        {
          "indexed": true,
          "internalType": "bytes32",
          "name": "role",
          "type": "bytes32"
        },
        {
          "indexed": true,
          "internalType": "bytes32",
          "name": "previousAdminRole",
          "type": "bytes32"
        },
        {
          "indexed": true,
          "internalType": "bytes32",
          "name": "newAdminRole",
          "type": "bytes32"
        }
      ],
      "name": "RoleAdminChanged",
      "type": "event"
    },
    {
      "anonymous": false,
      "inputs": [
        {
          "indexed": true,
          "internalType": "bytes32",
          "name": "role",
          "type": "bytes32"
        },
        {
          "indexed": true,
          "internalType": "address",
          "name": "account",
          "type": "address"
        },
        {
          "indexed": true,
          "internalType": "address",
          "name": "sender",
          "type": "address"
        }
      ],
      "name": "RoleGranted",
      "type": "event"
    },
    {
      "anonymous": false,
      "inputs": [
        {
          "indexed": true,
          "internalType": "bytes32",
          "name": "role",
          "type": "bytes32"
        },
        {
          "indexed": true,
          "internalType": "address",
          "name": "account",
          "type": "address"
        },
        {
          "indexed": true,
          "internalType": "address",
          "name": "sender",
          "type": "address"
        }
      ],
      "name": "RoleRevoked",
      "type": "event"
    },
    {
      "anonymous": false,
      "inputs": [
        {
          "indexed": false,
          "internalType": "address",
          "name": "account",
          "type": "address"
        },
        {
          "indexed": false,
          "internalType": "uint256",
          "name": "poolId",
          "type": "uint256"
        },
        {
          "indexed": false,
          "internalType": "uint256",
          "name": "totalReward",
          "type": "uint256"
        },
        {
          "indexed": false,
          "internalType": "uint256",
          "name": "stakedId",
          "type": "uint256"
        },
        {
          "indexed": false,
          "internalType": "uint256",
          "name": "time",
          "type": "uint256"
        }
      ],
      "name": "StakingPoolClaimReward",
      "type": "event"
    },
    {
      "anonymous": false,
      "inputs": [
        {
          "indexed": true,
          "internalType": "uint256",
          "name": "poolId",
          "type": "uint256"
        },
        {
          "indexed": false,
          "internalType": "contract IERC20Upgradeable",
          "name": "acceptedToken",
          "type": "address"
        },
        {
          "indexed": false,
          "internalType": "uint256",
          "name": "cap",
          "type": "uint256"
        },
        {
          "indexed": false,
          "internalType": "uint256",
          "name": "APR",
          "type": "uint256"
        },
        {
          "indexed": false,
          "internalType": "uint256",
          "name": "lockDuration",
          "type": "uint256"
        },
        {
          "indexed": false,
          "internalType": "uint256",
          "name": "delayDuration",
          "type": "uint256"
        }
      ],
      "name": "StakingPoolCreate",
      "type": "event"
    },
    {
      "anonymous": false,
      "inputs": [
        {
          "indexed": false,
          "internalType": "address",
          "name": "account",
          "type": "address"
        },
        {
          "indexed": false,
          "internalType": "uint256",
          "name": "poolId",
          "type": "uint256"
        },
        {
          "indexed": false,
          "internalType": "uint256",
          "name": "amount",
          "type": "uint256"
        },
        {
          "indexed": false,
          "internalType": "uint256",
          "name": "stakedId",
          "type": "uint256"
        },
        {
          "indexed": false,
          "internalType": "uint256",
          "name": "time",
          "type": "uint256"
        }
      ],
      "name": "StakingPoolDeposit",
      "type": "event"
    },
    {
      "anonymous": false,
      "inputs": [
        {
          "indexed": false,
          "internalType": "address",
          "name": "account",
          "type": "address"
        },
        {
          "indexed": false,
          "internalType": "uint256",
          "name": "poolId",
          "type": "uint256"
        },
        {
          "indexed": false,
          "internalType": "uint256",
          "name": "amount",
          "type": "uint256"
        },
        {
          "indexed": false,
          "internalType": "uint256",
          "name": "stakedId",
          "type": "uint256"
        },
        {
          "indexed": false,
          "internalType": "uint256",
          "name": "time",
          "type": "uint256"
        }
      ],
      "name": "StakingPoolWithdraw",
      "type": "event"
    },
    {
      "anonymous": false,
      "inputs": [
        {
          "indexed": false,
          "internalType": "address",
          "name": "account",
          "type": "address"
        }
      ],
      "name": "Unpaused",
      "type": "event"
    },
    {
      "inputs": [],
      "name": "ADMIN",
      "outputs": [
        {
          "internalType": "bytes32",
          "name": "",
          "type": "bytes32"
        }
      ],
      "stateMutability": "view",
      "type": "function",
      "constant": true
    },
    {
      "inputs": [],
      "name": "DEFAULT_ADMIN_ROLE",
      "outputs": [
        {
          "internalType": "bytes32",
          "name": "",
          "type": "bytes32"
        }
      ],
      "stateMutability": "view",
      "type": "function",
      "constant": true
    },
    {
      "inputs": [],
      "name": "SUPER_ADMIN",
      "outputs": [
        {
          "internalType": "bytes32",
          "name": "",
          "type": "bytes32"
        }
      ],
      "stateMutability": "view",
      "type": "function",
      "constant": true
    },
    {
      "inputs": [],
      "name": "coldWalletAddress",
      "outputs": [
        {
          "internalType": "address",
          "name": "",
          "type": "address"
        }
      ],
      "stateMutability": "view",
      "type": "function",
      "constant": true
    },
    {
      "inputs": [
        {
          "internalType": "bytes32",
          "name": "role",
          "type": "bytes32"
        }
      ],
      "name": "getRoleAdmin",
      "outputs": [
        {
          "internalType": "bytes32",
          "name": "",
          "type": "bytes32"
        }
      ],
      "stateMutability": "view",
      "type": "function",
      "constant": true
    },
    {
      "inputs": [
        {
          "internalType": "bytes32",
          "name": "role",
          "type": "bytes32"
        },
        {
          "internalType": "address",
          "name": "account",
          "type": "address"
        }
      ],
      "name": "grantRole",
      "outputs": [],
      "stateMutability": "nonpayable",
      "type": "function"
    },
    {
      "inputs": [
        {
          "internalType": "bytes32",
          "name": "role",
          "type": "bytes32"
        },
        {
          "internalType": "address",
          "name": "account",
          "type": "address"
        }
      ],
      "name": "hasRole",
      "outputs": [
        {
          "internalType": "bool",
          "name": "",
          "type": "bool"
        }
      ],
      "stateMutability": "view",
      "type": "function",
      "constant": true
    },
    {
      "inputs": [],
      "name": "owner",
      "outputs": [
        {
          "internalType": "address",
          "name": "",
          "type": "address"
        }
      ],
      "stateMutability": "view",
      "type": "function",
      "constant": true
    },
    {
      "inputs": [],
      "name": "paused",
      "outputs": [
        {
          "internalType": "bool",
          "name": "",
          "type": "bool"
        }
      ],
      "stateMutability": "view",
      "type": "function",
      "constant": true
    },
    {
      "inputs": [
        {
          "internalType": "uint256",
          "name": "",
          "type": "uint256"
        }
      ],
      "name": "poolInfo",
      "outputs": [
        {
          "internalType": "contract IERC20Upgradeable",
          "name": "acceptedToken",
          "type": "address"
        },
        {
          "internalType": "uint256",
          "name": "cap",
          "type": "uint256"
        },
        {
          "internalType": "uint256",
          "name": "totalStaked",
          "type": "uint256"
        },
        {
          "internalType": "uint256",
          "name": "APR",
          "type": "uint256"
        },
        {
          "internalType": "uint256",
          "name": "lockDuration",
          "type": "uint256"
        },
        {
          "internalType": "uint256",
          "name": "delayDuration",
          "type": "uint256"
        }
      ],
      "stateMutability": "view",
      "type": "function",
      "constant": true
    },
    {
      "inputs": [],
      "name": "renounceOwnership",
      "outputs": [],
      "stateMutability": "nonpayable",
      "type": "function"
    },
    {
      "inputs": [
        {
          "internalType": "bytes32",
          "name": "role",
          "type": "bytes32"
        },
        {
          "internalType": "address",
          "name": "account",
          "type": "address"
        }
      ],
      "name": "renounceRole",
      "outputs": [],
      "stateMutability": "nonpayable",
      "type": "function"
    },
    {
      "inputs": [
        {
          "internalType": "bytes32",
          "name": "role",
          "type": "bytes32"
        },
        {
          "internalType": "address",
          "name": "account",
          "type": "address"
        }
      ],
      "name": "revokeRole",
      "outputs": [],
      "stateMutability": "nonpayable",
      "type": "function"
    },
    {
      "inputs": [],
      "name": "rewardDistributor",
      "outputs": [
        {
          "internalType": "address",
          "name": "",
          "type": "address"
        }
      ],
      "stateMutability": "view",
      "type": "function",
      "constant": true
    },
    {
      "inputs": [
        {
          "internalType": "bytes4",
          "name": "interfaceId",
          "type": "bytes4"
        }
      ],
      "name": "supportsInterface",
      "outputs": [
        {
          "internalType": "bool",
          "name": "",
          "type": "bool"
        }
      ],
      "stateMutability": "view",
      "type": "function",
      "constant": true
    },
    {
      "inputs": [
        {
          "internalType": "address",
          "name": "newOwner",
          "type": "address"
        }
      ],
      "name": "transferOwnership",
      "outputs": [],
      "stateMutability": "nonpayable",
      "type": "function"
    },
    {
      "inputs": [],
      "name": "__StakingPool_init",
      "outputs": [],
      "stateMutability": "nonpayable",
      "type": "function"
    },
    {
      "inputs": [
        {
          "internalType": "uint256",
          "name": "value",
          "type": "uint256"
        }
      ],
      "name": "store",
      "outputs": [],
      "stateMutability": "nonpayable",
      "type": "function"
    },
    {
      "inputs": [],
      "name": "retrieve",
      "outputs": [
        {
          "internalType": "uint256",
          "name": "",
          "type": "uint256"
        }
      ],
      "stateMutability": "view",
      "type": "function",
      "constant": true
    },
    {
      "inputs": [
        {
          "internalType": "contract IERC20Upgradeable",
          "name": "_acceptedToken",
          "type": "address"
        },
        {
          "internalType": "uint256",
          "name": "_cap",
          "type": "uint256"
        },
        {
          "internalType": "uint256",
          "name": "_APR",
          "type": "uint256"
        },
        {
          "internalType": "uint256",
          "name": "_lockDuration",
          "type": "uint256"
        },
        {
          "internalType": "uint256",
          "name": "_delayDuration",
          "type": "uint256"
        }
      ],
      "name": "createPool",
      "outputs": [],
      "stateMutability": "nonpayable",
      "type": "function"
    },
    {
      "inputs": [
        {
          "internalType": "uint256",
          "name": "_poolId",
          "type": "uint256"
        },
        {
          "internalType": "uint256",
          "name": "_amount",
          "type": "uint256"
        }
      ],
      "name": "deposit",
      "outputs": [],
      "stateMutability": "nonpayable",
      "type": "function"
    },
    {
      "inputs": [
        {
          "internalType": "uint256",
          "name": "_poolId",
          "type": "uint256"
        },
        {
          "internalType": "uint256",
          "name": "_amount",
          "type": "uint256"
        },
        {
          "internalType": "uint256",
          "name": "_stakedId",
          "type": "uint256"
        }
      ],
      "name": "withdraw",
      "outputs": [],
      "stateMutability": "nonpayable",
      "type": "function"
    },
    {
      "inputs": [
        {
          "internalType": "uint256",
          "name": "_poolId",
          "type": "uint256"
        },
        {
          "internalType": "uint256",
          "name": "_stakedId",
          "type": "uint256"
        }
      ],
      "name": "claimRewardPool",
      "outputs": [],
      "stateMutability": "nonpayable",
      "type": "function"
    },
    {
      "inputs": [
        {
          "internalType": "uint256",
          "name": "_poolId",
          "type": "uint256"
        }
      ],
      "name": "totalStakedOfPool",
      "outputs": [
        {
          "internalType": "uint256",
          "name": "totalStaked",
          "type": "uint256"
        }
      ],
      "stateMutability": "view",
      "type": "function",
      "constant": true
    },
    {
      "inputs": [
        {
          "internalType": "uint256",
          "name": "_poolId",
          "type": "uint256"
        },
        {
          "internalType": "address",
          "name": "_account",
          "type": "address"
        },
        {
          "internalType": "uint256",
          "name": "_stakedId",
          "type": "uint256"
        }
      ],
      "name": "_getPendingReward",
      "outputs": [
        {
          "internalType": "uint256",
          "name": "pendingReward",
          "type": "uint256"
        }
      ],
      "stateMutability": "view",
      "type": "function",
      "constant": true
    },
    {
      "inputs": [
        {
          "internalType": "uint256",
          "name": "_poolId",
          "type": "uint256"
        },
        {
          "internalType": "address",
          "name": "_account",
          "type": "address"
        },
        {
          "internalType": "uint256",
          "name": "_stakedId",
          "type": "uint256"
        }
      ],
      "name": "getPendingReward",
      "outputs": [
        {
          "internalType": "uint256",
          "name": "",
          "type": "uint256"
        }
      ],
      "stateMutability": "view",
      "type": "function",
      "constant": true
    },
    {
      "inputs": [
        {
          "internalType": "uint256",
          "name": "_poolId",
          "type": "uint256"
        },
        {
          "internalType": "address",
          "name": "_account",
          "type": "address"
        }
      ],
      "name": "getTotalReward",
      "outputs": [
        {
          "internalType": "uint256",
          "name": "totalReward",
          "type": "uint256"
        }
      ],
      "stateMutability": "view",
      "type": "function",
      "constant": true
    },
    {
      "inputs": [
        {
          "internalType": "uint256",
          "name": "_poolId",
          "type": "uint256"
        },
        {
          "internalType": "address",
          "name": "_account",
          "type": "address"
        },
        {
          "internalType": "uint256",
          "name": "_stakedId",
          "type": "uint256"
        }
      ],
      "name": "getInfoStaking",
      "outputs": [
        {
          "components": [
            {
              "internalType": "uint256",
              "name": "balance",
              "type": "uint256"
            },
            {
              "internalType": "uint256",
              "name": "stakeTime",
              "type": "uint256"
            },
            {
              "internalType": "uint256",
              "name": "lastClaimTime",
              "type": "uint256"
            },
            {
              "internalType": "uint256",
              "name": "pendingReward",
              "type": "uint256"
            },
            {
              "internalType": "uint256",
              "name": "APR",
              "type": "uint256"
            }
          ],
          "internalType": "struct StakingPoolV2.UserStakingData",
          "name": "",
          "type": "tuple"
        }
      ],
      "stateMutability": "view",
      "type": "function",
      "constant": true
    },
    {
      "inputs": [
        {
          "internalType": "address",
          "name": "_account",
          "type": "address"
        }
      ],
      "name": "setRewardDistributor",
      "outputs": [],
      "stateMutability": "nonpayable",
      "type": "function"
    },
    {
      "inputs": [
        {
          "internalType": "address",
          "name": "_account",
          "type": "address"
        }
      ],
      "name": "setColdWalletAddress",
      "outputs": [],
      "stateMutability": "nonpayable",
      "type": "function"
    },
    {
      "inputs": [
        {
          "internalType": "address",
          "name": "_account",
          "type": "address"
        },
        {
          "internalType": "uint256",
          "name": "_poolId",
          "type": "uint256"
        },
        {
          "internalType": "uint256",
          "name": "_stakedId",
          "type": "uint256"
        }
      ],
      "name": "getBalanceOfStakingPool",
      "outputs": [
        {
          "internalType": "uint256",
          "name": "",
          "type": "uint256"
        }
      ],
      "stateMutability": "view",
      "type": "function",
      "constant": true
    },
    {
      "inputs": [],
      "name": "version",
      "outputs": [
        {
          "internalType": "uint256",
          "name": "",
          "type": "uint256"
        }
      ],
      "stateMutability": "pure",
      "type": "function",
      "constant": true
    }
  ],
  "bytecode": "0x608060405234801561001057600080fd5b50613761806100206000396000f3fe608060405234801561001057600080fd5b50600436106101f05760003560e01c80637c7c7c3c1161010f578063b912eacf116100a2578063eded907d11610071578063eded907d146105ac578063f2fde38b146105c8578063f477c2b9146105e4578063f96134f714610600576101f0565b8063b912eacf14610526578063d547741f14610556578063dea125ee14610572578063e2bbb15814610590576101f0565b8063a217fddf116100de578063a217fddf146104b2578063a41fe49f146104d0578063acc2166a146104ec578063b2ce5df31461050a576101f0565b80637c7c7c3c1461042a5780638da5cb5b1461044857806391d1485414610466578063a1809b9514610496576101f0565b806336568abe1161018757806354fd4d501161015657806354fd4d50146103c85780635c975abb146103e65780636057361d14610404578063715018a614610420576101f0565b806336568abe1461034257806336ab69141461035e578063396a29b1146103685780634752aa5e14610398576101f0565b80632a0acc6a116101c35780632a0acc6a146102ba5780632c2025ca146102d85780632e64cec1146103085780632f2ff15d14610326576101f0565b806301ffc9a7146101f55780631526fe2714610225578063248a9ca31461025a57806324c208501461028a575b600080fd5b61020f600480360381019061020a91906125b8565b610630565b60405161021c9190612600565b60405180910390f35b61023f600480360381019061023a9190612651565b6106aa565b6040516102519695949392919061270c565b60405180910390f35b610274600480360381019061026f91906127a3565b610717565b60405161028191906127df565b60405180910390f35b6102a4600480360381019061029f9190612838565b610737565b6040516102b19190612878565b60405180910390f35b6102c2610864565b6040516102cf91906127df565b60405180910390f35b6102f260048036038101906102ed9190612893565b610888565b6040516102ff9190612878565b60405180910390f35b6103106109a8565b60405161031d9190612878565b60405180910390f35b610340600480360381019061033b91906128e6565b6109bf565b005b61035c600480360381019061035791906128e6565b6109e0565b005b610366610a63565b005b610382600480360381019061037d9190612926565b610ca5565b60405161038f9190612878565b60405180910390f35b6103b260048036038101906103ad9190612893565b610d24565b6040516103bf9190612878565b60405180910390f35b6103d0610dbe565b6040516103dd9190612878565b60405180910390f35b6103ee610dc7565b6040516103fb9190612600565b60405180910390f35b61041e60048036038101906104199190612651565b610dde565b005b610428610de9565b005b610432610dfd565b60405161043f91906127df565b60405180910390f35b610450610e21565b60405161045d9190612988565b60405180910390f35b610480600480360381019061047b91906128e6565b610e4b565b60405161048d9190612600565b60405180910390f35b6104b060048036038101906104ab91906129a3565b610eb6565b005b6104ba610efb565b6040516104c791906127df565b60405180910390f35b6104ea60048036038101906104e591906129d0565b610f02565b005b6104f46111c1565b6040516105019190612988565b60405180910390f35b610524600480360381019061051f9190612a61565b6111e8565b005b610540600480360381019061053b9190612651565b611357565b60405161054d9190612878565b60405180910390f35b610570600480360381019061056b91906128e6565b61138c565b005b61057a6113ad565b6040516105879190612988565b60405180910390f35b6105aa60048036038101906105a59190612adc565b6113d4565b005b6105c660048036038101906105c19190612adc565b6116c0565b005b6105e260048036038101906105dd91906129a3565b6116ce565b005b6105fe60048036038101906105f991906129a3565b611751565b005b61061a60048036038101906106159190612893565b611796565b6040516106279190612b93565b60405180910390f35b60007f7965db0b000000000000000000000000000000000000000000000000000000007bffffffffffffffffffffffffffffffffffffffffffffffffffffffff1916827bffffffffffffffffffffffffffffffffffffffffffffffffffffffff191614806106a357506106a282611855565b5b9050919050565b61013081815481106106bb57600080fd5b90600052602060002090600602016000915090508060000160009054906101000a900473ffffffffffffffffffffffffffffffffffffffff16908060010154908060020154908060030154908060040154908060050154905086565b600060fb6000838152602001908152602001600020600101549050919050565b600080610130848154811061074f5761074e612bae565b5b906000526020600020906006020190506000610131600086815260200190815260200160002060008573ffffffffffffffffffffffffffffffffffffffff1673ffffffffffffffffffffffffffffffffffffffff16815260200190815260200160002090506000816001015490506107fc6040518060400160405280600581526020017f6c656e3a20000000000000000000000000000000000000000000000000000000815250826118bf565b6000805b82811015610856578360020160008281526020019081526020016000206003015461082c898984610888565b6108369190612c0c565b826108419190612c0c565b9150808061084e90612c40565b915050610800565b508094505050505092915050565b7fdf8b4c520ffe197c5343c6f5aec59570151ef9a492f2c624fd45ddde6135ec4281565b600080610131600086815260200190815260200160002060008573ffffffffffffffffffffffffffffffffffffffff1673ffffffffffffffffffffffffffffffffffffffff16815260200190815260200160002090506000816002016000858152602001908152602001600020905061093a6040518060400160405280601481526020017f757365725374616b696e672e62616c616e63653a00000000000000000000000081525082600001546118bf565b600081600101544261094c9190612c88565b9050600068056bc75e2d631000006301e1338063ffffffff16838560040154866000015461097a9190612cbc565b6109849190612cbc565b61098e9190612d45565b6109989190612d45565b9050809450505050509392505050565b6000600161012d546109ba9190612c0c565b905090565b6109c882610717565b6109d18161195b565b6109db838361196f565b505050565b6109e8611a50565b73ffffffffffffffffffffffffffffffffffffffff168173ffffffffffffffffffffffffffffffffffffffff1614610a55576040517f08c379a0000000000000000000000000000000000000000000000000000000008152600401610a4c90612df9565b60405180910390fd5b610a5f8282611a58565b5050565b60008060019054906101000a900460ff16159050808015610a945750600160008054906101000a900460ff1660ff16105b80610ac15750610aa330611b3a565b158015610ac05750600160008054906101000a900460ff1660ff16145b5b610b00576040517f08c379a0000000000000000000000000000000000000000000000000000000008152600401610af790612e8b565b60405180910390fd5b60016000806101000a81548160ff021916908360ff1602179055508015610b3d576001600060016101000a81548160ff0219169083151502179055505b610b45611b5d565b610b8f7fdf8b4c520ffe197c5343c6f5aec59570151ef9a492f2c624fd45ddde6135ec427fd980155b32cf66e6af51e0972d64b9d5efe0e6f237dfaa4bdc83f990dd79e9c8611bae565b610bb97fd980155b32cf66e6af51e0972d64b9d5efe0e6f237dfaa4bdc83f990dd79e9c833611c0a565b610be37fdf8b4c520ffe197c5343c6f5aec59570151ef9a492f2c624fd45ddde6135ec4233611c0a565b610beb611c18565b610bf3611c71565b73306366de0bf312786c0af82089fc914ef578fe0c61012f60006101000a81548173ffffffffffffffffffffffffffffffffffffffff021916908373ffffffffffffffffffffffffffffffffffffffff1602179055508015610ca25760008060016101000a81548160ff0219169083151502179055507f7f26b83ff96e1f2b6a682f133852f6798a09c465da95921460cefb38474024986001604051610c999190612ef3565b60405180910390a15b50565b600080610131600085815260200190815260200160002060008673ffffffffffffffffffffffffffffffffffffffff1673ffffffffffffffffffffffffffffffffffffffff1681526020019081526020016000209050600081600201600085815260200190815260200160002090508060000154925050509392505050565b600080610131600086815260200190815260200160002060008573ffffffffffffffffffffffffffffffffffffffff1673ffffffffffffffffffffffffffffffffffffffff16815260200190815260200160002090506000816002016000858152602001908152602001600020905060008160030154610da5888888610888565b610daf9190612c0c565b90508093505050509392505050565b60006002905090565b6000606560009054906101000a900460ff16905090565b8061012d8190555050565b610df1611cca565b610dfb6000611d48565b565b7fd980155b32cf66e6af51e0972d64b9d5efe0e6f237dfaa4bdc83f990dd79e9c881565b6000603360009054906101000a900473ffffffffffffffffffffffffffffffffffffffff16905090565b600060fb600084815260200190815260200160002060000160008373ffffffffffffffffffffffffffffffffffffffff1673ffffffffffffffffffffffffffffffffffffffff16815260200190815260200160002060009054906101000a900460ff16905092915050565b8061012e60006101000a81548173ffffffffffffffffffffffffffffffffffffffff021916908373ffffffffffffffffffffffffffffffffffffffff16021790555050565b6000801b81565b600033905060006101308581548110610f1e57610f1d612bae565b5b906000526020600020906006020190506000610131600087815260200190815260200160002060008473ffffffffffffffffffffffffffffffffffffffff1673ffffffffffffffffffffffffffffffffffffffff168152602001908152602001600020905060008160020160008681526020019081526020016000209050600042905083600401548260010154610fb59190612c0c565b811015610ff7576040517f08c379a0000000000000000000000000000000000000000000000000000000008152600401610fee90612f5a565b60405180910390fd5b816000015487111561103e576040517f08c379a000000000000000000000000000000000000000000000000000000000815260040161103590612fec565b60405180910390fd5b60008711611081576040517f08c379a00000000000000000000000000000000000000000000000000000000081526004016110789061307e565b60405180910390fd5b61108c888688610888565b82600301600082825461109f9190612c0c565b92505081905550600083600401600088815260200190815260200160002060008154809291906110ce90612c40565b919050559050604051806040016040528089815260200183815250846003016000898152602001908152602001600020600083815260200190815260200160002060008201518160000155602082015181600101559050508785600201600082825461113a9190612c88565b92505081905550878460000160008282546111559190612c88565b92505081905550878360000160008282546111709190612c88565b925050819055507f92ff8d261b202e665b22fd3a980dc1c49c0deec329d3aaf123404e9c1cc761bc868a8a8a866040516111ae95949392919061309e565b60405180910390a1505050505050505050565b61012e60009054906101000a900473ffffffffffffffffffffffffffffffffffffffff1681565b7fdf8b4c520ffe197c5343c6f5aec59570151ef9a492f2c624fd45ddde6135ec426112128161195b565b6101306040518060c001604052808873ffffffffffffffffffffffffffffffffffffffff1681526020018781526020016000815260200186815260200185815260200184815250908060018154018082558091505060019003906000526020600020906006020160009091909190915060008201518160000160006101000a81548173ffffffffffffffffffffffffffffffffffffffff021916908373ffffffffffffffffffffffffffffffffffffffff1602179055506020820151816001015560408201518160020155606082015181600301556080820151816004015560a0820151816005015550506001610130805490506113109190612c88565b7fcd1b965b2dda00d15a9132179c35c3d96c3f4708169965ac49c35fa61c606de187878787876040516113479594939291906130f1565b60405180910390a2505050505050565b600080610130838154811061136f5761136e612bae565b5b906000526020600020906006020160020154905080915050919050565b61139582610717565b61139e8161195b565b6113a88383611a58565b505050565b61012f60009054906101000a900473ffffffffffffffffffffffffffffffffffffffff1681565b6000339050600061013084815481106113f0576113ef612bae565b5b906000526020600020906006020190506000610131600086815260200190815260200160002060008473ffffffffffffffffffffffffffffffffffffffff1673ffffffffffffffffffffffffffffffffffffffff1681526020019081526020016000209050600073ffffffffffffffffffffffffffffffffffffffff1661012f60009054906101000a900473ffffffffffffffffffffffffffffffffffffffff1673ffffffffffffffffffffffffffffffffffffffff16036114e7576040517f08c379a00000000000000000000000000000000000000000000000000000000081526004016114de906131b6565b60405180910390fd5b8160000160009054906101000a900473ffffffffffffffffffffffffffffffffffffffff1673ffffffffffffffffffffffffffffffffffffffff166323b872dd8461012f60009054906101000a900473ffffffffffffffffffffffffffffffffffffffff16876040518463ffffffff1660e01b815260040161156b939291906131d6565b6020604051808303816000875af115801561158a573d6000803e3d6000fd5b505050506040513d601f19601f820116820180604052508101906115ae9190613239565b5060008160010160008154809291906115c690612c40565b9190505590506040518060a00160405280868152602001428152602001600081526020016000815260200184600301548152508260020160008381526020019081526020016000206000820151816000015560208201518160010155604082015181600201556060820151816003015560808201518160040155905050848260000160008282546116579190612c0c565b92505081905550848360020160008282546116729190612c0c565b925050819055507fa409d8ca59a86e577295c166cb9ac6c56e8ffcb985535549fb38d3a36793f1aa84878784426040516116b095949392919061309e565b60405180910390a1505050505050565b6116ca8282611e0e565b5050565b6116d6611cca565b600073ffffffffffffffffffffffffffffffffffffffff168173ffffffffffffffffffffffffffffffffffffffff1603611745576040517f08c379a000000000000000000000000000000000000000000000000000000000815260040161173c906132d8565b60405180910390fd5b61174e81611d48565b50565b8061012f60006101000a81548173ffffffffffffffffffffffffffffffffffffffff021916908373ffffffffffffffffffffffffffffffffffffffff16021790555050565b61179e61252c565b6000610131600086815260200190815260200160002060008573ffffffffffffffffffffffffffffffffffffffff1673ffffffffffffffffffffffffffffffffffffffff168152602001908152602001600020905060008160020160008581526020019081526020016000209050806040518060a001604052908160008201548152602001600182015481526020016002820154815260200160038201548152602001600482015481525050925050509392505050565b60007f01ffc9a7000000000000000000000000000000000000000000000000000000007bffffffffffffffffffffffffffffffffffffffffffffffffffffffff1916827bffffffffffffffffffffffffffffffffffffffffffffffffffffffff1916149050919050565b61195782826040516024016118d5929190613377565b6040516020818303038152906040527fb60e72cc000000000000000000000000000000000000000000000000000000007bffffffffffffffffffffffffffffffffffffffffffffffffffffffff19166020820180517bffffffffffffffffffffffffffffffffffffffffffffffffffffffff8381831617835250505050612148565b5050565b61196c81611967611a50565b612171565b50565b6119798282610e4b565b611a4c57600160fb600084815260200190815260200160002060000160008373ffffffffffffffffffffffffffffffffffffffff1673ffffffffffffffffffffffffffffffffffffffff16815260200190815260200160002060006101000a81548160ff0219169083151502179055506119f1611a50565b73ffffffffffffffffffffffffffffffffffffffff168173ffffffffffffffffffffffffffffffffffffffff16837f2f8788117e7eff1d82e926ec794901d17c78024a50270940304540a733656f0d60405160405180910390a45b5050565b600033905090565b611a628282610e4b565b15611b3657600060fb600084815260200190815260200160002060000160008373ffffffffffffffffffffffffffffffffffffffff1673ffffffffffffffffffffffffffffffffffffffff16815260200190815260200160002060006101000a81548160ff021916908315150217905550611adb611a50565b73ffffffffffffffffffffffffffffffffffffffff168173ffffffffffffffffffffffffffffffffffffffff16837ff6391f5c32d9c69d2a47ea670b442974b53935d1edc7fd64eb21e047a839171b60405160405180910390a45b5050565b6000808273ffffffffffffffffffffffffffffffffffffffff163b119050919050565b600060019054906101000a900460ff16611bac576040517f08c379a0000000000000000000000000000000000000000000000000000000008152600401611ba390613419565b60405180910390fd5b565b6000611bb983610717565b90508160fb6000858152602001908152602001600020600101819055508181847fbd79b86ffe0ab8e8776151514217cd7cacd52c909f66475c3af44e129f0b00ff60405160405180910390a4505050565b611c14828261196f565b5050565b600060019054906101000a900460ff16611c67576040517f08c379a0000000000000000000000000000000000000000000000000000000008152600401611c5e90613419565b60405180910390fd5b611c6f6121f6565b565b600060019054906101000a900460ff16611cc0576040517f08c379a0000000000000000000000000000000000000000000000000000000008152600401611cb790613419565b60405180910390fd5b611cc8612257565b565b611cd2611a50565b73ffffffffffffffffffffffffffffffffffffffff16611cf0610e21565b73ffffffffffffffffffffffffffffffffffffffff1614611d46576040517f08c379a0000000000000000000000000000000000000000000000000000000008152600401611d3d90613485565b60405180910390fd5b565b6000603360009054906101000a900473ffffffffffffffffffffffffffffffffffffffff16905081603360006101000a81548173ffffffffffffffffffffffffffffffffffffffff021916908373ffffffffffffffffffffffffffffffffffffffff1602179055508173ffffffffffffffffffffffffffffffffffffffff168173ffffffffffffffffffffffffffffffffffffffff167f8be0079c531659141344cd1fd0a4f28419497f9722a3daafe3b4186f6b6457e060405160405180910390a35050565b600033905060006101308481548110611e2a57611e29612bae565b5b906000526020600020906006020190506000610131600086815260200190815260200160002060008473ffffffffffffffffffffffffffffffffffffffff1673ffffffffffffffffffffffffffffffffffffffff168152602001908152602001600020905060008160020160008681526020019081526020016000209050600082600401600087815260200190815260200160002054905060008060005b83811015611fd75768056bc75e2d631000006301e1338063ffffffff1686600101548860030160008d8152602001908152602001600020600085815260200190815260200160002060010154611f1e9190612c88565b87600401548960030160008e8152602001908152602001600020600086815260200190815260200160002060000154611f579190612cbc565b611f619190612cbc565b611f6b9190612d45565b611f759190612d45565b82611f809190612c0c565b91508560030160008a815260200190815260200160002060008281526020019081526020016000206000015482611fb79190612c0c565b83611fc29190612c0c565b92508080611fcf90612c40565b915050611ec8565b506000821161201b576040517f08c379a000000000000000000000000000000000000000000000000000000000815260040161201290613517565b60405180910390fd5b8084600301600082825461202f9190612c88565b925050819055508560000160009054906101000a900473ffffffffffffffffffffffffffffffffffffffff1673ffffffffffffffffffffffffffffffffffffffff166323b872dd61012e60009054906101000a900473ffffffffffffffffffffffffffffffffffffffff1689856040518463ffffffff1660e01b81526004016120ba939291906131d6565b6020604051808303816000875af11580156120d9573d6000803e3d6000fd5b505050506040513d601f19601f820116820180604052508101906120fd9190613239565b507f1b4980d162f0e576ac2686eca7bb080c2190029d7bb8f0ed271e0004991fa3c3878a848b4260405161213595949392919061309e565b60405180910390a1505050505050505050565b60008151905060006a636f6e736f6c652e6c6f679050602083016000808483855afa5050505050565b61217b8282610e4b565b6121f257612188816122c3565b6121968360001c60206122f0565b6040516020016121a792919061360b565b6040516020818303038152906040526040517f08c379a00000000000000000000000000000000000000000000000000000000081526004016121e99190613645565b60405180910390fd5b5050565b600060019054906101000a900460ff16612245576040517f08c379a000000000000000000000000000000000000000000000000000000000815260040161223c90613419565b60405180910390fd5b612255612250611a50565b611d48565b565b600060019054906101000a900460ff166122a6576040517f08c379a000000000000000000000000000000000000000000000000000000000815260040161229d90613419565b60405180910390fd5b6000606560006101000a81548160ff021916908315150217905550565b60606122e98273ffffffffffffffffffffffffffffffffffffffff16601460ff166122f0565b9050919050565b6060600060028360026123039190612cbc565b61230d9190612c0c565b67ffffffffffffffff81111561232657612325613667565b5b6040519080825280601f01601f1916602001820160405280156123585781602001600182028036833780820191505090505b5090507f3000000000000000000000000000000000000000000000000000000000000000816000815181106123905761238f612bae565b5b60200101907effffffffffffffffffffffffffffffffffffffffffffffffffffffffffffff1916908160001a9053507f7800000000000000000000000000000000000000000000000000000000000000816001815181106123f4576123f3612bae565b5b60200101907effffffffffffffffffffffffffffffffffffffffffffffffffffffffffffff1916908160001a905350600060018460026124349190612cbc565b61243e9190612c0c565b90505b60018111156124de577f3031323334353637383961626364656600000000000000000000000000000000600f8616601081106124805761247f612bae565b5b1a60f81b82828151811061249757612496612bae565b5b60200101907effffffffffffffffffffffffffffffffffffffffffffffffffffffffffffff1916908160001a905350600485901c9450806124d790613696565b9050612441565b5060008414612522576040517f08c379a00000000000000000000000000000000000000000000000000000000081526004016125199061370b565b60405180910390fd5b8091505092915050565b6040518060a0016040528060008152602001600081526020016000815260200160008152602001600081525090565b600080fd5b60007fffffffff0000000000000000000000000000000000000000000000000000000082169050919050565b61259581612560565b81146125a057600080fd5b50565b6000813590506125b28161258c565b92915050565b6000602082840312156125ce576125cd61255b565b5b60006125dc848285016125a3565b91505092915050565b60008115159050919050565b6125fa816125e5565b82525050565b600060208201905061261560008301846125f1565b92915050565b6000819050919050565b61262e8161261b565b811461263957600080fd5b50565b60008135905061264b81612625565b92915050565b6000602082840312156126675761266661255b565b5b60006126758482850161263c565b91505092915050565b600073ffffffffffffffffffffffffffffffffffffffff82169050919050565b6000819050919050565b60006126c36126be6126b98461267e565b61269e565b61267e565b9050919050565b60006126d5826126a8565b9050919050565b60006126e7826126ca565b9050919050565b6126f7816126dc565b82525050565b6127068161261b565b82525050565b600060c08201905061272160008301896126ee565b61272e60208301886126fd565b61273b60408301876126fd565b61274860608301866126fd565b61275560808301856126fd565b61276260a08301846126fd565b979650505050505050565b6000819050919050565b6127808161276d565b811461278b57600080fd5b50565b60008135905061279d81612777565b92915050565b6000602082840312156127b9576127b861255b565b5b60006127c78482850161278e565b91505092915050565b6127d98161276d565b82525050565b60006020820190506127f460008301846127d0565b92915050565b60006128058261267e565b9050919050565b612815816127fa565b811461282057600080fd5b50565b6000813590506128328161280c565b92915050565b6000806040838503121561284f5761284e61255b565b5b600061285d8582860161263c565b925050602061286e85828601612823565b9150509250929050565b600060208201905061288d60008301846126fd565b92915050565b6000806000606084860312156128ac576128ab61255b565b5b60006128ba8682870161263c565b93505060206128cb86828701612823565b92505060406128dc8682870161263c565b9150509250925092565b600080604083850312156128fd576128fc61255b565b5b600061290b8582860161278e565b925050602061291c85828601612823565b9150509250929050565b60008060006060848603121561293f5761293e61255b565b5b600061294d86828701612823565b935050602061295e8682870161263c565b925050604061296f8682870161263c565b9150509250925092565b612982816127fa565b82525050565b600060208201905061299d6000830184612979565b92915050565b6000602082840312156129b9576129b861255b565b5b60006129c784828501612823565b91505092915050565b6000806000606084860312156129e9576129e861255b565b5b60006129f78682870161263c565b9350506020612a088682870161263c565b9250506040612a198682870161263c565b9150509250925092565b6000612a2e826127fa565b9050919050565b612a3e81612a23565b8114612a4957600080fd5b50565b600081359050612a5b81612a35565b92915050565b600080600080600060a08688031215612a7d57612a7c61255b565b5b6000612a8b88828901612a4c565b9550506020612a9c8882890161263c565b9450506040612aad8882890161263c565b9350506060612abe8882890161263c565b9250506080612acf8882890161263c565b9150509295509295909350565b60008060408385031215612af357612af261255b565b5b6000612b018582860161263c565b9250506020612b128582860161263c565b9150509250929050565b612b258161261b565b82525050565b60a082016000820151612b416000850182612b1c565b506020820151612b546020850182612b1c565b506040820151612b676040850182612b1c565b506060820151612b7a6060850182612b1c565b506080820151612b8d6080850182612b1c565b50505050565b600060a082019050612ba86000830184612b2b565b92915050565b7f4e487b7100000000000000000000000000000000000000000000000000000000600052603260045260246000fd5b7f4e487b7100000000000000000000000000000000000000000000000000000000600052601160045260246000fd5b6000612c178261261b565b9150612c228361261b565b9250828201905080821115612c3a57612c39612bdd565b5b92915050565b6000612c4b8261261b565b91507fffffffffffffffffffffffffffffffffffffffffffffffffffffffffffffffff8203612c7d57612c7c612bdd565b5b600182019050919050565b6000612c938261261b565b9150612c9e8361261b565b9250828203905081811115612cb657612cb5612bdd565b5b92915050565b6000612cc78261261b565b9150612cd28361261b565b9250817fffffffffffffffffffffffffffffffffffffffffffffffffffffffffffffffff0483118215151615612d0b57612d0a612bdd565b5b828202905092915050565b7f4e487b7100000000000000000000000000000000000000000000000000000000600052601260045260246000fd5b6000612d508261261b565b9150612d5b8361261b565b925082612d6b57612d6a612d16565b5b828204905092915050565b600082825260208201905092915050565b7f416363657373436f6e74726f6c3a2063616e206f6e6c792072656e6f756e636560008201527f20726f6c657320666f722073656c660000000000000000000000000000000000602082015250565b6000612de3602f83612d76565b9150612dee82612d87565b604082019050919050565b60006020820190508181036000830152612e1281612dd6565b9050919050565b7f496e697469616c697a61626c653a20636f6e747261637420697320616c72656160008201527f647920696e697469616c697a6564000000000000000000000000000000000000602082015250565b6000612e75602e83612d76565b9150612e8082612e19565b604082019050919050565b60006020820190508181036000830152612ea481612e68565b9050919050565b6000819050919050565b600060ff82169050919050565b6000612edd612ed8612ed384612eab565b61269e565b612eb5565b9050919050565b612eed81612ec2565b82525050565b6000602082019050612f086000830184612ee4565b92915050565b7f5374616b696e67506f6f6c3a207374696c6c206c6f636b656400000000000000600082015250565b6000612f44601983612d76565b9150612f4f82612f0e565b602082019050919050565b60006020820190508181036000830152612f7381612f37565b9050919050565b7f5374616b696e67506f6f6c3a20496e73756666696369656e7420756e7374616b60008201527f6520616d6f756e74000000000000000000000000000000000000000000000000602082015250565b6000612fd6602883612d76565b9150612fe182612f7a565b604082019050919050565b6000602082019050818103600083015261300581612fc9565b9050919050565b7f5374616b696e67506f6f6c3a20556e7374616b6520616d6f756e74206d75737460008201527f2067726561746572207468616e20300000000000000000000000000000000000602082015250565b6000613068602f83612d76565b91506130738261300c565b604082019050919050565b600060208201905081810360008301526130978161305b565b9050919050565b600060a0820190506130b36000830188612979565b6130c060208301876126fd565b6130cd60408301866126fd565b6130da60608301856126fd565b6130e760808301846126fd565b9695505050505050565b600060a08201905061310660008301886126ee565b61311360208301876126fd565b61312060408301866126fd565b61312d60608301856126fd565b61313a60808301846126fd565b9695505050505050565b7f5374616b696e67506f6f6c3a20436f6c642057616c6c6574206164647265737360008201527f206973206e6f7420616464726573732030000000000000000000000000000000602082015250565b60006131a0603183612d76565b91506131ab82613144565b604082019050919050565b600060208201905081810360008301526131cf81613193565b9050919050565b60006060820190506131eb6000830186612979565b6131f86020830185612979565b61320560408301846126fd565b949350505050565b613216816125e5565b811461322157600080fd5b50565b6000815190506132338161320d565b92915050565b60006020828403121561324f5761324e61255b565b5b600061325d84828501613224565b91505092915050565b7f4f776e61626c653a206e6577206f776e657220697320746865207a65726f206160008201527f6464726573730000000000000000000000000000000000000000000000000000602082015250565b60006132c2602683612d76565b91506132cd82613266565b604082019050919050565b600060208201905081810360008301526132f1816132b5565b9050919050565b600081519050919050565b60005b83811015613321578082015181840152602081019050613306565b60008484015250505050565b6000601f19601f8301169050919050565b6000613349826132f8565b6133538185612d76565b9350613363818560208601613303565b61336c8161332d565b840191505092915050565b60006040820190508181036000830152613391818561333e565b90506133a060208301846126fd565b9392505050565b7f496e697469616c697a61626c653a20636f6e7472616374206973206e6f74206960008201527f6e697469616c697a696e67000000000000000000000000000000000000000000602082015250565b6000613403602b83612d76565b915061340e826133a7565b604082019050919050565b60006020820190508181036000830152613432816133f6565b9050919050565b7f4f776e61626c653a2063616c6c6572206973206e6f7420746865206f776e6572600082015250565b600061346f602083612d76565b915061347a82613439565b602082019050919050565b6000602082019050818103600083015261349e81613462565b9050919050565b7f5374616b696e67506f6f6c3a206e6f7468696e672069732063757272656e746c60008201527f792070656e64696e67206f72206e6f74207265616c6573652079657400000000602082015250565b6000613501603c83612d76565b915061350c826134a5565b604082019050919050565b60006020820190508181036000830152613530816134f4565b9050919050565b600081905092915050565b7f416363657373436f6e74726f6c3a206163636f756e7420000000000000000000600082015250565b6000613578601783613537565b915061358382613542565b601782019050919050565b6000613599826132f8565b6135a38185613537565b93506135b3818560208601613303565b80840191505092915050565b7f206973206d697373696e6720726f6c6520000000000000000000000000000000600082015250565b60006135f5601183613537565b9150613600826135bf565b601182019050919050565b60006136168261356b565b9150613622828561358e565b915061362d826135e8565b9150613639828461358e565b91508190509392505050565b6000602082019050818103600083015261365f818461333e565b905092915050565b7f4e487b7100000000000000000000000000000000000000000000000000000000600052604160045260246000fd5b60006136a18261261b565b9150600082036136b4576136b3612bdd565b5b600182039050919050565b7f537472696e67733a20686578206c656e67746820696e73756666696369656e74600082015250565b60006136f5602083612d76565b9150613700826136bf565b602082019050919050565b60006020820190508181036000830152613724816136e8565b905091905056fea264697066735822122005458d8e6541c1b515021670c2a1e6799c612914cd6ed84bef0e4356725bbb7f64736f6c63430008100033",
  "immutableReferences": {},
  "source": "//SPDX-License-Identifier: MIT\r\npragma solidity 0.8.16;\r\nimport \"@openzeppelin/contracts-upgradeable/token/ERC20/IERC20Upgradeable.sol\";\r\nimport \"@openzeppelin/contracts-upgradeable/token/ERC20/utils/SafeERC20Upgradeable.sol\";\r\nimport \"@openzeppelin/contracts-upgradeable/access/OwnableUpgradeable.sol\";\r\nimport \"@openzeppelin/contracts-upgradeable/proxy/utils/Initializable.sol\";\r\nimport \"@openzeppelin/contracts-upgradeable/security/ReentrancyGuardUpgradeable.sol\";\r\nimport \"@openzeppelin/contracts-upgradeable/utils/math/SafeCastUpgradeable.sol\";\r\nimport \"@openzeppelin/contracts-upgradeable/utils/structs/EnumerableSetUpgradeable.sol\";\r\nimport \"@openzeppelin/contracts-upgradeable/security/PausableUpgradeable.sol\";\r\nimport \"@openzeppelin/contracts-upgradeable/access/AccessControlUpgradeable.sol\";\r\nimport \"hardhat/console.sol\";\r\n\r\ncontract StakingPoolV2 is\r\n    Initializable,\r\n    OwnableUpgradeable,\r\n    PausableUpgradeable,\r\n    ReentrancyGuardUpgradeable,\r\n    AccessControlUpgradeable\r\n{\r\n    using SafeERC20Upgradeable for IERC20Upgradeable;\r\n    // hash role admin\r\n    bytes32 public constant ADMIN = keccak256(\"ADMIN\");\r\n\r\n    // hash role super admin\r\n    bytes32 public constant SUPER_ADMIN = keccak256(\"SUPER_ADMIN\");\r\n\r\n    uint32 private constant ONE_YEAR = 365 days;\r\n\r\n    uint256 private _value;\r\n\r\n    // The reward distribution address\r\n    address public rewardDistributor;\r\n\r\n    // address to receive the money\r\n    address public coldWalletAddress;\r\n\r\n    // info each pool\r\n    StakingPoolInfo[] public poolInfo;\r\n\r\n    //data staking of user in a pool\r\n    mapping(uint256 => mapping(address => StakingData)) userStakingData;\r\n\r\n    // pool info\r\n    struct StakingPoolInfo {\r\n        IERC20Upgradeable acceptedToken;\r\n        uint256 cap;\r\n        uint256 totalStaked;\r\n        uint256 APR;\r\n        uint256 lockDuration;\r\n        uint256 delayDuration;\r\n    }\r\n\r\n    // data staking in user\r\n    struct UserStakingData {\r\n        uint256 balance;\r\n        uint256 stakeTime;\r\n        uint256 lastClaimTime;\r\n        uint256 pendingReward;\r\n        uint256 APR;\r\n    }\r\n\r\n    // data withdraw of user\r\n    struct UserPendingWithdrawl {\r\n        uint256 amount;\r\n        uint256 applicableAt;\r\n    }\r\n\r\n    // data of all user\r\n    struct StakingData {\r\n        uint256 balance;\r\n        uint256 stakingDataRecordCount;\r\n        mapping(uint256 => UserStakingData) stakingDatas;\r\n        mapping(uint256 => mapping(uint256 => UserPendingWithdrawl)) totalWithdrawals;\r\n        mapping(uint256 => uint256) totalWithdrawalsCount;\r\n    }\r\n\r\n    event StakingPoolCreate(\r\n        uint256 indexed poolId,\r\n        IERC20Upgradeable acceptedToken,\r\n        uint256 cap,\r\n        uint256 APR,\r\n        uint256 lockDuration,\r\n        uint256 delayDuration      \r\n    );\r\n\r\n    event StakingPoolDeposit(address account, uint256 poolId, uint256 amount, uint256 stakedId, uint256 time);\r\n    event StakingPoolWithdraw(address account, uint256 poolId, uint256 amount, uint256 stakedId, uint256 time);\r\n    event StakingPoolClaimReward(address account, uint256 poolId, uint256 totalReward, uint256 stakedId, uint256 time);\r\n\r\n    function __StakingPool_init() public initializer {\r\n        __AccessControl_init(); \r\n        _setRoleAdmin(ADMIN, SUPER_ADMIN);\r\n        _setupRole(SUPER_ADMIN, msg.sender);\r\n        _setupRole(ADMIN, msg.sender);\r\n        // set owner is msg.sender\r\n        __Ownable_init(); \r\n\r\n        // stop contract\r\n        __Pausable_init();\r\n\r\n        coldWalletAddress = address(0x306366DE0bF312786C0af82089Fc914eF578fe0c);\r\n    }\r\n\r\n    function store(uint256 value) public {\r\n        _value = value;\r\n    }\r\n    \r\n    function retrieve() public view returns(uint256) {\r\n        return _value+1;\r\n    }\r\n\r\n    \r\n\r\n    function createPool(\r\n        IERC20Upgradeable _acceptedToken,\r\n        uint256 _cap,\r\n        // uint256 _minInvestment,\r\n        // uint256 _maxInvestment,\r\n        uint256 _APR,\r\n        uint256 _lockDuration,\r\n        uint256 _delayDuration\r\n    ) external onlyRole(ADMIN) {\r\n        poolInfo.push(\r\n            StakingPoolInfo({\r\n                acceptedToken: _acceptedToken,\r\n                cap: _cap,\r\n                totalStaked: 0,\r\n                // minInvestment: _minInvestment,\r\n                // maxInvestment: _maxInvestment,\r\n                APR: _APR,\r\n                lockDuration: _lockDuration,\r\n                delayDuration: _delayDuration\r\n            })\r\n        );\r\n        emit StakingPoolCreate(\r\n            poolInfo.length - 1,\r\n            _acceptedToken,\r\n            _cap,\r\n             _APR,\r\n            _lockDuration,\r\n            _delayDuration  \r\n        );\r\n    }\r\n\r\n    function deposit(uint256 _poolId, uint256 _amount) external {\r\n        address account = msg.sender;\r\n\r\n        StakingPoolInfo storage pool = poolInfo[_poolId];\r\n        StakingData storage user = userStakingData[_poolId][account];\r\n\r\n        require(\r\n            coldWalletAddress != address(0),\r\n            \"StakingPool: Cold Wallet address is not address 0\"\r\n        );\r\n\r\n        pool.acceptedToken.transferFrom(account, coldWalletAddress, _amount);\r\n        \r\n        uint256 recordId = user.stakingDataRecordCount++;\r\n        user.stakingDatas[recordId] = UserStakingData({\r\n            balance: _amount,\r\n            stakeTime: block.timestamp,\r\n            lastClaimTime: 0,\r\n            pendingReward: 0,\r\n            APR: pool.APR\r\n        });\r\n        user.balance += _amount;\r\n        pool.totalStaked += _amount;\r\n\r\n        emit StakingPoolDeposit(account, _poolId, _amount, recordId, block.timestamp);\r\n    }\r\n\r\n    function withdraw(uint256 _poolId, uint256 _amount, uint256 _stakedId) external {\r\n        address account = msg.sender;\r\n        StakingPoolInfo storage pool = poolInfo[_poolId];\r\n        StakingData storage user = userStakingData[_poolId][account];\r\n        UserStakingData storage userStaking = user.stakingDatas[_stakedId];\r\n\r\n        uint256 currentTime = block.timestamp;\r\n        require(\r\n            currentTime >= userStaking.stakeTime + pool.lockDuration,\r\n            \"StakingPool: still locked\"\r\n        );\r\n\r\n        require(\r\n            _amount <= userStaking.balance,\r\n            \"StakingPool: Insufficient unstake amount\"\r\n        );\r\n\r\n        require(_amount > 0, \"StakingPool: Unstake amount must greater than 0\");\r\n\r\n        userStaking.pendingReward += _getPendingReward(_poolId, account, _stakedId);\r\n\r\n        uint256 countWithdrawal = user.totalWithdrawalsCount[_stakedId]++;\r\n        user.totalWithdrawals[_stakedId][countWithdrawal] = UserPendingWithdrawl({amount: _amount, applicableAt: currentTime});\r\n\r\n\r\n        pool.totalStaked -= _amount;\r\n        user.balance -= _amount;\r\n        userStaking.balance -= _amount;\r\n        \r\n        emit StakingPoolWithdraw(account, _poolId, _amount, _stakedId, currentTime);\r\n    } \r\n\r\n    function claimRewardPool(uint256 _poolId, uint256 _stakedId) external {\r\n        _claimReward(_poolId, _stakedId);\r\n    }\r\n\r\n    function _claimReward(uint256 _poolId, uint256 _stakedId) private {\r\n        address account = msg.sender;\r\n        StakingPoolInfo storage pool = poolInfo[_poolId]; \r\n        StakingData storage user = userStakingData[_poolId][account];\r\n        UserStakingData storage userStaking = user.stakingDatas[_stakedId];\r\n\r\n        uint256 countWithdrawal = user.totalWithdrawalsCount[_stakedId];\r\n        uint256 totalToken = 0;\r\n        uint256 totalReward = 0;\r\n        for(uint256 i = 0; i < countWithdrawal; i++) {\r\n            totalReward += ((user.totalWithdrawals[_stakedId][i].amount * userStaking.APR * (user.totalWithdrawals[_stakedId][i].applicableAt - userStaking.stakeTime)) / ONE_YEAR) / 1e20;\r\n            totalToken += totalReward + user.totalWithdrawals[_stakedId][i].amount;\r\n        }\r\n\r\n        // uint256 rewardAmount = user.totalWithdrawals[_stakedId][countWithdrawal];\r\n        // console.log('totalReward: ',totalReward);\r\n        require(\r\n            totalToken > 0,\r\n            \"StakingPool: nothing is currently pending or not realese yet\"\r\n        );\r\n\r\n        userStaking.pendingReward -= totalReward;\r\n\r\n        pool.acceptedToken.transferFrom(rewardDistributor, account, totalToken  );\r\n\r\n        emit StakingPoolClaimReward(account, _poolId, totalToken , _stakedId, block.timestamp);\r\n    }\r\n\r\n    function totalStakedOfPool(uint256 _poolId) external view returns(uint256 totalStaked) {\r\n        uint256 totalStaked = poolInfo[_poolId].totalStaked;\r\n        return totalStaked;\r\n    }\r\n\r\n    function _getPendingReward(uint256 _poolId, address _account, uint256 _stakedId) public view returns(uint256 pendingReward) {\r\n        StakingData storage user = userStakingData[_poolId][_account];\r\n        UserStakingData storage userStaking = user.stakingDatas[_stakedId];\r\n\r\n        console.log('userStaking.balance:',userStaking.balance);\r\n        uint256 timeInSecond = block.timestamp  - userStaking.stakeTime;\r\n        uint256 pendingReward = ((userStaking.balance * userStaking.APR * timeInSecond) / ONE_YEAR) / 1e20;\r\n        return pendingReward;\r\n    }\r\n\r\n    function getPendingReward(uint256 _poolId, address _account, uint256 _stakedId) external view returns(uint256) {\r\n        StakingData storage user = userStakingData[_poolId][_account];\r\n        UserStakingData storage userStaking = user.stakingDatas[_stakedId];\r\n        // uint256 pendingReward = userStaking.pendingReward;\r\n        // return pendingReward;\r\n        uint256 pendingReward = _getPendingReward(_poolId, _account, _stakedId) + userStaking.pendingReward;\r\n        return pendingReward;\r\n    }\r\n\r\n    function getTotalReward(uint256 _poolId, address _account) external view returns(uint256 totalReward) {\r\n        StakingPoolInfo storage pool = poolInfo[_poolId];\r\n        StakingData storage user = userStakingData[_poolId][_account];\r\n\r\n        uint256 len = user.stakingDataRecordCount;\r\n        console.log('len: ',len);\r\n        uint256 totalReward = 0;\r\n        for(uint256 i = 0; i < len; i++) {\r\n            totalReward += _getPendingReward(_poolId, _account, i) + user.stakingDatas[i].pendingReward;\r\n        }\r\n        \r\n        return totalReward;\r\n    }\r\n\r\n    function getInfoStaking(uint256 _poolId, address _account, uint256 _stakedId) external view returns(UserStakingData memory) {\r\n        StakingData storage user = userStakingData[_poolId][_account];\r\n        UserStakingData storage userStaking = user.stakingDatas[_stakedId];\r\n        return userStaking;\r\n    }\r\n\r\n\r\n\r\n    function setRewardDistributor(address _account) external {\r\n        rewardDistributor = _account;    \r\n    }\r\n\r\n    function setColdWalletAddress(address _account) external {\r\n        coldWalletAddress = _account;\r\n    }\r\n\r\n    function getBalanceOfStakingPool(address _account, uint256 _poolId, uint256 _stakedId) external view returns (uint256) {\r\n        StakingData storage user = userStakingData[_poolId][_account];\r\n        UserStakingData storage userStaking = user.stakingDatas[_stakedId];\r\n        return userStaking.balance;\r\n    }\r\n\r\n    function version() public pure returns (uint256) {\r\n        return 2;\r\n    }\r\n}",
  "sourcePath": "D:\\WorkSpace\\Jobs\\Staking\\Staking_SC\\contracts\\StakingPoolV2.sol",
  "compiler": {
    "name": "solc",
    "version": "0.8.16+commit.07a7930e.Emscripten.clang"
  },
  "schemaVersion": "3.4.9",
  "updatedAt": "2022-10-31T10:57:03.842Z",
  "networkType": "ethereum",
  "devdoc": {
    "kind": "dev",
    "methods": {
      "getRoleAdmin(bytes32)": {
        "details": "Returns the admin role that controls `role`. See {grantRole} and {revokeRole}. To change a role's admin, use {_setRoleAdmin}."
      },
      "grantRole(bytes32,address)": {
        "details": "Grants `role` to `account`. If `account` had not been already granted `role`, emits a {RoleGranted} event. Requirements: - the caller must have ``role``'s admin role. May emit a {RoleGranted} event."
      },
      "hasRole(bytes32,address)": {
        "details": "Returns `true` if `account` has been granted `role`."
      },
      "owner()": {
        "details": "Returns the address of the current owner."
      },
      "paused()": {
        "details": "Returns true if the contract is paused, and false otherwise."
      },
      "renounceOwnership()": {
        "details": "Leaves the contract without owner. It will not be possible to call `onlyOwner` functions anymore. Can only be called by the current owner. NOTE: Renouncing ownership will leave the contract without an owner, thereby removing any functionality that is only available to the owner."
      },
      "renounceRole(bytes32,address)": {
        "details": "Revokes `role` from the calling account. Roles are often managed via {grantRole} and {revokeRole}: this function's purpose is to provide a mechanism for accounts to lose their privileges if they are compromised (such as when a trusted device is misplaced). If the calling account had been revoked `role`, emits a {RoleRevoked} event. Requirements: - the caller must be `account`. May emit a {RoleRevoked} event."
      },
      "revokeRole(bytes32,address)": {
        "details": "Revokes `role` from `account`. If `account` had been granted `role`, emits a {RoleRevoked} event. Requirements: - the caller must have ``role``'s admin role. May emit a {RoleRevoked} event."
      },
      "supportsInterface(bytes4)": {
        "details": "See {IERC165-supportsInterface}."
      },
      "transferOwnership(address)": {
        "details": "Transfers ownership of the contract to a new account (`newOwner`). Can only be called by the current owner."
      }
    },
    "version": 1
  },
  "userdoc": {
    "kind": "user",
    "methods": {},
    "version": 1
  }
}