{
  "contractName": "StakingPool",
  "abi": [
    {
      "anonymous": false,
      "inputs": [
        {
          "indexed": false,
          "internalType": "uint8",
          "name": "version",
          "type": "uint8"
        }
      ],
      "name": "Initialized",
      "type": "event"
    },
    {
      "anonymous": false,
      "inputs": [
        {
          "indexed": true,
          "internalType": "address",
          "name": "previousOwner",
          "type": "address"
        },
        {
          "indexed": true,
          "internalType": "address",
          "name": "newOwner",
          "type": "address"
        }
      ],
      "name": "OwnershipTransferred",
      "type": "event"
    },
    {
      "anonymous": false,
      "inputs": [
        {
          "indexed": false,
          "internalType": "address",
          "name": "account",
          "type": "address"
        }
      ],
      "name": "Paused",
      "type": "event"
    },
    {
      "anonymous": false,
      "inputs": [
        {
          "indexed": true,
          "internalType": "bytes32",
          "name": "role",
          "type": "bytes32"
        },
        {
          "indexed": true,
          "internalType": "bytes32",
          "name": "previousAdminRole",
          "type": "bytes32"
        },
        {
          "indexed": true,
          "internalType": "bytes32",
          "name": "newAdminRole",
          "type": "bytes32"
        }
      ],
      "name": "RoleAdminChanged",
      "type": "event"
    },
    {
      "anonymous": false,
      "inputs": [
        {
          "indexed": true,
          "internalType": "bytes32",
          "name": "role",
          "type": "bytes32"
        },
        {
          "indexed": true,
          "internalType": "address",
          "name": "account",
          "type": "address"
        },
        {
          "indexed": true,
          "internalType": "address",
          "name": "sender",
          "type": "address"
        }
      ],
      "name": "RoleGranted",
      "type": "event"
    },
    {
      "anonymous": false,
      "inputs": [
        {
          "indexed": true,
          "internalType": "bytes32",
          "name": "role",
          "type": "bytes32"
        },
        {
          "indexed": true,
          "internalType": "address",
          "name": "account",
          "type": "address"
        },
        {
          "indexed": true,
          "internalType": "address",
          "name": "sender",
          "type": "address"
        }
      ],
      "name": "RoleRevoked",
      "type": "event"
    },
    {
      "anonymous": false,
      "inputs": [
        {
          "indexed": false,
          "internalType": "address",
          "name": "account",
          "type": "address"
        },
        {
          "indexed": false,
          "internalType": "uint256",
          "name": "poolId",
          "type": "uint256"
        },
        {
          "indexed": false,
          "internalType": "uint256",
          "name": "totalReward",
          "type": "uint256"
        },
        {
          "indexed": false,
          "internalType": "uint256",
          "name": "stakedId",
          "type": "uint256"
        },
        {
          "indexed": false,
          "internalType": "uint256",
          "name": "time",
          "type": "uint256"
        }
      ],
      "name": "StakingPoolClaimReward",
      "type": "event"
    },
    {
      "anonymous": false,
      "inputs": [
        {
          "indexed": true,
          "internalType": "uint256",
          "name": "poolId",
          "type": "uint256"
        },
        {
          "indexed": false,
          "internalType": "contract IERC20Upgradeable",
          "name": "acceptedToken",
          "type": "address"
        },
        {
          "indexed": false,
          "internalType": "uint256",
          "name": "cap",
          "type": "uint256"
        },
        {
          "indexed": false,
          "internalType": "uint256",
          "name": "APR",
          "type": "uint256"
        },
        {
          "indexed": false,
          "internalType": "uint256",
          "name": "lockDuration",
          "type": "uint256"
        },
        {
          "indexed": false,
          "internalType": "uint256",
          "name": "delayDuration",
          "type": "uint256"
        }
      ],
      "name": "StakingPoolCreate",
      "type": "event"
    },
    {
      "anonymous": false,
      "inputs": [
        {
          "indexed": false,
          "internalType": "address",
          "name": "account",
          "type": "address"
        },
        {
          "indexed": false,
          "internalType": "uint256",
          "name": "poolId",
          "type": "uint256"
        },
        {
          "indexed": false,
          "internalType": "uint256",
          "name": "amount",
          "type": "uint256"
        },
        {
          "indexed": false,
          "internalType": "uint256",
          "name": "stakedId",
          "type": "uint256"
        },
        {
          "indexed": false,
          "internalType": "uint256",
          "name": "time",
          "type": "uint256"
        }
      ],
      "name": "StakingPoolDeposit",
      "type": "event"
    },
    {
      "anonymous": false,
      "inputs": [
        {
          "indexed": false,
          "internalType": "address",
          "name": "account",
          "type": "address"
        },
        {
          "indexed": false,
          "internalType": "uint256",
          "name": "poolId",
          "type": "uint256"
        },
        {
          "indexed": false,
          "internalType": "uint256",
          "name": "amount",
          "type": "uint256"
        },
        {
          "indexed": false,
          "internalType": "uint256",
          "name": "stakedId",
          "type": "uint256"
        },
        {
          "indexed": false,
          "internalType": "uint256",
          "name": "time",
          "type": "uint256"
        }
      ],
      "name": "StakingPoolWithdraw",
      "type": "event"
    },
    {
      "anonymous": false,
      "inputs": [
        {
          "indexed": false,
          "internalType": "address",
          "name": "account",
          "type": "address"
        }
      ],
      "name": "Unpaused",
      "type": "event"
    },
    {
      "inputs": [],
      "name": "ADMIN",
      "outputs": [
        {
          "internalType": "bytes32",
          "name": "",
          "type": "bytes32"
        }
      ],
      "stateMutability": "view",
      "type": "function",
      "constant": true
    },
    {
      "inputs": [],
      "name": "DEFAULT_ADMIN_ROLE",
      "outputs": [
        {
          "internalType": "bytes32",
          "name": "",
          "type": "bytes32"
        }
      ],
      "stateMutability": "view",
      "type": "function",
      "constant": true
    },
    {
      "inputs": [],
      "name": "SUPER_ADMIN",
      "outputs": [
        {
          "internalType": "bytes32",
          "name": "",
          "type": "bytes32"
        }
      ],
      "stateMutability": "view",
      "type": "function",
      "constant": true
    },
    {
      "inputs": [],
      "name": "coldWalletAddress",
      "outputs": [
        {
          "internalType": "address",
          "name": "",
          "type": "address"
        }
      ],
      "stateMutability": "view",
      "type": "function",
      "constant": true
    },
    {
      "inputs": [
        {
          "internalType": "bytes32",
          "name": "role",
          "type": "bytes32"
        }
      ],
      "name": "getRoleAdmin",
      "outputs": [
        {
          "internalType": "bytes32",
          "name": "",
          "type": "bytes32"
        }
      ],
      "stateMutability": "view",
      "type": "function",
      "constant": true
    },
    {
      "inputs": [
        {
          "internalType": "bytes32",
          "name": "role",
          "type": "bytes32"
        },
        {
          "internalType": "address",
          "name": "account",
          "type": "address"
        }
      ],
      "name": "grantRole",
      "outputs": [],
      "stateMutability": "nonpayable",
      "type": "function"
    },
    {
      "inputs": [
        {
          "internalType": "bytes32",
          "name": "role",
          "type": "bytes32"
        },
        {
          "internalType": "address",
          "name": "account",
          "type": "address"
        }
      ],
      "name": "hasRole",
      "outputs": [
        {
          "internalType": "bool",
          "name": "",
          "type": "bool"
        }
      ],
      "stateMutability": "view",
      "type": "function",
      "constant": true
    },
    {
      "inputs": [],
      "name": "owner",
      "outputs": [
        {
          "internalType": "address",
          "name": "",
          "type": "address"
        }
      ],
      "stateMutability": "view",
      "type": "function",
      "constant": true
    },
    {
      "inputs": [],
      "name": "paused",
      "outputs": [
        {
          "internalType": "bool",
          "name": "",
          "type": "bool"
        }
      ],
      "stateMutability": "view",
      "type": "function",
      "constant": true
    },
    {
      "inputs": [
        {
          "internalType": "uint256",
          "name": "",
          "type": "uint256"
        }
      ],
      "name": "poolInfo",
      "outputs": [
        {
          "internalType": "contract IERC20Upgradeable",
          "name": "acceptedToken",
          "type": "address"
        },
        {
          "internalType": "uint256",
          "name": "cap",
          "type": "uint256"
        },
        {
          "internalType": "uint256",
          "name": "totalStaked",
          "type": "uint256"
        },
        {
          "internalType": "uint256",
          "name": "APR",
          "type": "uint256"
        },
        {
          "internalType": "uint256",
          "name": "lockDuration",
          "type": "uint256"
        },
        {
          "internalType": "uint256",
          "name": "delayDuration",
          "type": "uint256"
        }
      ],
      "stateMutability": "view",
      "type": "function",
      "constant": true
    },
    {
      "inputs": [],
      "name": "renounceOwnership",
      "outputs": [],
      "stateMutability": "nonpayable",
      "type": "function"
    },
    {
      "inputs": [
        {
          "internalType": "bytes32",
          "name": "role",
          "type": "bytes32"
        },
        {
          "internalType": "address",
          "name": "account",
          "type": "address"
        }
      ],
      "name": "renounceRole",
      "outputs": [],
      "stateMutability": "nonpayable",
      "type": "function"
    },
    {
      "inputs": [
        {
          "internalType": "bytes32",
          "name": "role",
          "type": "bytes32"
        },
        {
          "internalType": "address",
          "name": "account",
          "type": "address"
        }
      ],
      "name": "revokeRole",
      "outputs": [],
      "stateMutability": "nonpayable",
      "type": "function"
    },
    {
      "inputs": [],
      "name": "rewardDistributor",
      "outputs": [
        {
          "internalType": "address",
          "name": "",
          "type": "address"
        }
      ],
      "stateMutability": "view",
      "type": "function",
      "constant": true
    },
    {
      "inputs": [
        {
          "internalType": "bytes4",
          "name": "interfaceId",
          "type": "bytes4"
        }
      ],
      "name": "supportsInterface",
      "outputs": [
        {
          "internalType": "bool",
          "name": "",
          "type": "bool"
        }
      ],
      "stateMutability": "view",
      "type": "function",
      "constant": true
    },
    {
      "inputs": [
        {
          "internalType": "address",
          "name": "newOwner",
          "type": "address"
        }
      ],
      "name": "transferOwnership",
      "outputs": [],
      "stateMutability": "nonpayable",
      "type": "function"
    },
    {
      "inputs": [],
      "name": "__StakingPool_init",
      "outputs": [],
      "stateMutability": "nonpayable",
      "type": "function"
    },
    {
      "inputs": [
        {
          "internalType": "uint256",
          "name": "value",
          "type": "uint256"
        }
      ],
      "name": "store",
      "outputs": [],
      "stateMutability": "nonpayable",
      "type": "function"
    },
    {
      "inputs": [],
      "name": "retrieve",
      "outputs": [
        {
          "internalType": "uint256",
          "name": "",
          "type": "uint256"
        }
      ],
      "stateMutability": "view",
      "type": "function",
      "constant": true
    },
    {
      "inputs": [
        {
          "internalType": "contract IERC20Upgradeable",
          "name": "_acceptedToken",
          "type": "address"
        },
        {
          "internalType": "uint256",
          "name": "_cap",
          "type": "uint256"
        },
        {
          "internalType": "uint256",
          "name": "_APR",
          "type": "uint256"
        },
        {
          "internalType": "uint256",
          "name": "_lockDuration",
          "type": "uint256"
        },
        {
          "internalType": "uint256",
          "name": "_delayDuration",
          "type": "uint256"
        }
      ],
      "name": "createPool",
      "outputs": [],
      "stateMutability": "nonpayable",
      "type": "function"
    },
    {
      "inputs": [
        {
          "internalType": "uint256",
          "name": "_poolId",
          "type": "uint256"
        },
        {
          "internalType": "uint256",
          "name": "_amount",
          "type": "uint256"
        }
      ],
      "name": "deposit",
      "outputs": [],
      "stateMutability": "nonpayable",
      "type": "function"
    },
    {
      "inputs": [
        {
          "internalType": "uint256",
          "name": "_poolId",
          "type": "uint256"
        },
        {
          "internalType": "uint256",
          "name": "_amount",
          "type": "uint256"
        },
        {
          "internalType": "uint256",
          "name": "_stakedId",
          "type": "uint256"
        }
      ],
      "name": "withdraw",
      "outputs": [],
      "stateMutability": "nonpayable",
      "type": "function"
    },
    {
      "inputs": [
        {
          "internalType": "uint256",
          "name": "_poolId",
          "type": "uint256"
        },
        {
          "internalType": "uint256",
          "name": "_stakedId",
          "type": "uint256"
        }
      ],
      "name": "claimRewardPool",
      "outputs": [],
      "stateMutability": "nonpayable",
      "type": "function"
    },
    {
      "inputs": [
        {
          "internalType": "uint256",
          "name": "_poolId",
          "type": "uint256"
        }
      ],
      "name": "totalStakedOfPool",
      "outputs": [
        {
          "internalType": "uint256",
          "name": "totalStaked",
          "type": "uint256"
        }
      ],
      "stateMutability": "view",
      "type": "function",
      "constant": true
    },
    {
      "inputs": [
        {
          "internalType": "uint256",
          "name": "_poolId",
          "type": "uint256"
        },
        {
          "internalType": "address",
          "name": "_account",
          "type": "address"
        },
        {
          "internalType": "uint256",
          "name": "_stakedId",
          "type": "uint256"
        }
      ],
      "name": "_getPendingReward",
      "outputs": [
        {
          "internalType": "uint256",
          "name": "pendingReward",
          "type": "uint256"
        }
      ],
      "stateMutability": "view",
      "type": "function",
      "constant": true
    },
    {
      "inputs": [
        {
          "internalType": "uint256",
          "name": "_poolId",
          "type": "uint256"
        },
        {
          "internalType": "address",
          "name": "_account",
          "type": "address"
        },
        {
          "internalType": "uint256",
          "name": "_stakedId",
          "type": "uint256"
        }
      ],
      "name": "getPendingReward",
      "outputs": [
        {
          "internalType": "uint256",
          "name": "",
          "type": "uint256"
        }
      ],
      "stateMutability": "view",
      "type": "function",
      "constant": true
    },
    {
      "inputs": [
        {
          "internalType": "uint256",
          "name": "_poolId",
          "type": "uint256"
        },
        {
          "internalType": "address",
          "name": "_account",
          "type": "address"
        }
      ],
      "name": "getTotalReward",
      "outputs": [
        {
          "internalType": "uint256",
          "name": "totalReward",
          "type": "uint256"
        }
      ],
      "stateMutability": "view",
      "type": "function",
      "constant": true
    },
    {
      "inputs": [
        {
          "internalType": "uint256",
          "name": "_poolId",
          "type": "uint256"
        },
        {
          "internalType": "address",
          "name": "_account",
          "type": "address"
        },
        {
          "internalType": "uint256",
          "name": "_stakedId",
          "type": "uint256"
        }
      ],
      "name": "getInfoStaking",
      "outputs": [
        {
          "components": [
            {
              "internalType": "uint256",
              "name": "balance",
              "type": "uint256"
            },
            {
              "internalType": "uint256",
              "name": "stakeTime",
              "type": "uint256"
            },
            {
              "internalType": "uint256",
              "name": "lastClaimTime",
              "type": "uint256"
            },
            {
              "internalType": "uint256",
              "name": "pendingReward",
              "type": "uint256"
            },
            {
              "internalType": "uint256",
              "name": "APR",
              "type": "uint256"
            }
          ],
          "internalType": "struct StakingPool.UserStakingData",
          "name": "",
          "type": "tuple"
        }
      ],
      "stateMutability": "view",
      "type": "function",
      "constant": true
    },
    {
      "inputs": [
        {
          "internalType": "address",
          "name": "_account",
          "type": "address"
        }
      ],
      "name": "setRewardDistributor",
      "outputs": [],
      "stateMutability": "nonpayable",
      "type": "function"
    },
    {
      "inputs": [
        {
          "internalType": "address",
          "name": "_account",
          "type": "address"
        }
      ],
      "name": "setColdWalletAddress",
      "outputs": [],
      "stateMutability": "nonpayable",
      "type": "function"
    },
    {
      "inputs": [
        {
          "internalType": "address",
          "name": "_account",
          "type": "address"
        },
        {
          "internalType": "uint256",
          "name": "_poolId",
          "type": "uint256"
        },
        {
          "internalType": "uint256",
          "name": "_stakedId",
          "type": "uint256"
        }
      ],
      "name": "getBalanceOfStakingPool",
      "outputs": [
        {
          "internalType": "uint256",
          "name": "",
          "type": "uint256"
        }
      ],
      "stateMutability": "view",
      "type": "function",
      "constant": true
    },
    {
      "inputs": [],
      "name": "version",
      "outputs": [
        {
          "internalType": "uint256",
          "name": "",
          "type": "uint256"
        }
      ],
      "stateMutability": "pure",
      "type": "function",
      "constant": true
    }
  ],
  "bytecode": "0x608060405234801561001057600080fd5b50613755806100206000396000f3fe608060405234801561001057600080fd5b50600436106101f05760003560e01c80637c7c7c3c1161010f578063b912eacf116100a2578063eded907d11610071578063eded907d146105ac578063f2fde38b146105c8578063f477c2b9146105e4578063f96134f714610600576101f0565b8063b912eacf14610526578063d547741f14610556578063dea125ee14610572578063e2bbb15814610590576101f0565b8063a217fddf116100de578063a217fddf146104b2578063a41fe49f146104d0578063acc2166a146104ec578063b2ce5df31461050a576101f0565b80637c7c7c3c1461042a5780638da5cb5b1461044857806391d1485414610466578063a1809b9514610496576101f0565b806336568abe1161018757806354fd4d501161015657806354fd4d50146103c85780635c975abb146103e65780636057361d14610404578063715018a614610420576101f0565b806336568abe1461034257806336ab69141461035e578063396a29b1146103685780634752aa5e14610398576101f0565b80632a0acc6a116101c35780632a0acc6a146102ba5780632c2025ca146102d85780632e64cec1146103085780632f2ff15d14610326576101f0565b806301ffc9a7146101f55780631526fe2714610225578063248a9ca31461025a57806324c208501461028a575b600080fd5b61020f600480360381019061020a91906125ac565b610630565b60405161021c91906125f4565b60405180910390f35b61023f600480360381019061023a9190612645565b6106aa565b60405161025196959493929190612700565b60405180910390f35b610274600480360381019061026f9190612797565b610717565b60405161028191906127d3565b60405180910390f35b6102a4600480360381019061029f919061282c565b610737565b6040516102b1919061286c565b60405180910390f35b6102c2610864565b6040516102cf91906127d3565b60405180910390f35b6102f260048036038101906102ed9190612887565b610888565b6040516102ff919061286c565b60405180910390f35b6103106109a8565b60405161031d919061286c565b60405180910390f35b610340600480360381019061033b91906128da565b6109b3565b005b61035c600480360381019061035791906128da565b6109d4565b005b610366610a57565b005b610382600480360381019061037d919061291a565b610c99565b60405161038f919061286c565b60405180910390f35b6103b260048036038101906103ad9190612887565b610d18565b6040516103bf919061286c565b60405180910390f35b6103d0610db2565b6040516103dd919061286c565b60405180910390f35b6103ee610dbb565b6040516103fb91906125f4565b60405180910390f35b61041e60048036038101906104199190612645565b610dd2565b005b610428610ddd565b005b610432610df1565b60405161043f91906127d3565b60405180910390f35b610450610e15565b60405161045d919061297c565b60405180910390f35b610480600480360381019061047b91906128da565b610e3f565b60405161048d91906125f4565b60405180910390f35b6104b060048036038101906104ab9190612997565b610eaa565b005b6104ba610eef565b6040516104c791906127d3565b60405180910390f35b6104ea60048036038101906104e591906129c4565b610ef6565b005b6104f46111b5565b604051610501919061297c565b60405180910390f35b610524600480360381019061051f9190612a55565b6111dc565b005b610540600480360381019061053b9190612645565b61134b565b60405161054d919061286c565b60405180910390f35b610570600480360381019061056b91906128da565b611380565b005b61057a6113a1565b604051610587919061297c565b60405180910390f35b6105aa60048036038101906105a59190612ad0565b6113c8565b005b6105c660048036038101906105c19190612ad0565b6116b4565b005b6105e260048036038101906105dd9190612997565b6116c2565b005b6105fe60048036038101906105f99190612997565b611745565b005b61061a60048036038101906106159190612887565b61178a565b6040516106279190612b87565b60405180910390f35b60007f7965db0b000000000000000000000000000000000000000000000000000000007bffffffffffffffffffffffffffffffffffffffffffffffffffffffff1916827bffffffffffffffffffffffffffffffffffffffffffffffffffffffff191614806106a357506106a282611849565b5b9050919050565b61013081815481106106bb57600080fd5b90600052602060002090600602016000915090508060000160009054906101000a900473ffffffffffffffffffffffffffffffffffffffff16908060010154908060020154908060030154908060040154908060050154905086565b600060fb6000838152602001908152602001600020600101549050919050565b600080610130848154811061074f5761074e612ba2565b5b906000526020600020906006020190506000610131600086815260200190815260200160002060008573ffffffffffffffffffffffffffffffffffffffff1673ffffffffffffffffffffffffffffffffffffffff16815260200190815260200160002090506000816001015490506107fc6040518060400160405280600581526020017f6c656e3a20000000000000000000000000000000000000000000000000000000815250826118b3565b6000805b82811015610856578360020160008281526020019081526020016000206003015461082c898984610888565b6108369190612c00565b826108419190612c00565b9150808061084e90612c34565b915050610800565b508094505050505092915050565b7fdf8b4c520ffe197c5343c6f5aec59570151ef9a492f2c624fd45ddde6135ec4281565b600080610131600086815260200190815260200160002060008573ffffffffffffffffffffffffffffffffffffffff1673ffffffffffffffffffffffffffffffffffffffff16815260200190815260200160002090506000816002016000858152602001908152602001600020905061093a6040518060400160405280601481526020017f757365725374616b696e672e62616c616e63653a00000000000000000000000081525082600001546118b3565b600081600101544261094c9190612c7c565b9050600068056bc75e2d631000006301e1338063ffffffff16838560040154866000015461097a9190612cb0565b6109849190612cb0565b61098e9190612d39565b6109989190612d39565b9050809450505050509392505050565b600061012d54905090565b6109bc82610717565b6109c58161194f565b6109cf8383611963565b505050565b6109dc611a44565b73ffffffffffffffffffffffffffffffffffffffff168173ffffffffffffffffffffffffffffffffffffffff1614610a49576040517f08c379a0000000000000000000000000000000000000000000000000000000008152600401610a4090612ded565b60405180910390fd5b610a538282611a4c565b5050565b60008060019054906101000a900460ff16159050808015610a885750600160008054906101000a900460ff1660ff16105b80610ab55750610a9730611b2e565b158015610ab45750600160008054906101000a900460ff1660ff16145b5b610af4576040517f08c379a0000000000000000000000000000000000000000000000000000000008152600401610aeb90612e7f565b60405180910390fd5b60016000806101000a81548160ff021916908360ff1602179055508015610b31576001600060016101000a81548160ff0219169083151502179055505b610b39611b51565b610b837fdf8b4c520ffe197c5343c6f5aec59570151ef9a492f2c624fd45ddde6135ec427fd980155b32cf66e6af51e0972d64b9d5efe0e6f237dfaa4bdc83f990dd79e9c8611ba2565b610bad7fd980155b32cf66e6af51e0972d64b9d5efe0e6f237dfaa4bdc83f990dd79e9c833611bfe565b610bd77fdf8b4c520ffe197c5343c6f5aec59570151ef9a492f2c624fd45ddde6135ec4233611bfe565b610bdf611c0c565b610be7611c65565b73306366de0bf312786c0af82089fc914ef578fe0c61012f60006101000a81548173ffffffffffffffffffffffffffffffffffffffff021916908373ffffffffffffffffffffffffffffffffffffffff1602179055508015610c965760008060016101000a81548160ff0219169083151502179055507f7f26b83ff96e1f2b6a682f133852f6798a09c465da95921460cefb38474024986001604051610c8d9190612ee7565b60405180910390a15b50565b600080610131600085815260200190815260200160002060008673ffffffffffffffffffffffffffffffffffffffff1673ffffffffffffffffffffffffffffffffffffffff1681526020019081526020016000209050600081600201600085815260200190815260200160002090508060000154925050509392505050565b600080610131600086815260200190815260200160002060008573ffffffffffffffffffffffffffffffffffffffff1673ffffffffffffffffffffffffffffffffffffffff16815260200190815260200160002090506000816002016000858152602001908152602001600020905060008160030154610d99888888610888565b610da39190612c00565b90508093505050509392505050565b60006001905090565b6000606560009054906101000a900460ff16905090565b8061012d8190555050565b610de5611cbe565b610def6000611d3c565b565b7fd980155b32cf66e6af51e0972d64b9d5efe0e6f237dfaa4bdc83f990dd79e9c881565b6000603360009054906101000a900473ffffffffffffffffffffffffffffffffffffffff16905090565b600060fb600084815260200190815260200160002060000160008373ffffffffffffffffffffffffffffffffffffffff1673ffffffffffffffffffffffffffffffffffffffff16815260200190815260200160002060009054906101000a900460ff16905092915050565b8061012e60006101000a81548173ffffffffffffffffffffffffffffffffffffffff021916908373ffffffffffffffffffffffffffffffffffffffff16021790555050565b6000801b81565b600033905060006101308581548110610f1257610f11612ba2565b5b906000526020600020906006020190506000610131600087815260200190815260200160002060008473ffffffffffffffffffffffffffffffffffffffff1673ffffffffffffffffffffffffffffffffffffffff168152602001908152602001600020905060008160020160008681526020019081526020016000209050600042905083600401548260010154610fa99190612c00565b811015610feb576040517f08c379a0000000000000000000000000000000000000000000000000000000008152600401610fe290612f4e565b60405180910390fd5b8160000154871115611032576040517f08c379a000000000000000000000000000000000000000000000000000000000815260040161102990612fe0565b60405180910390fd5b60008711611075576040517f08c379a000000000000000000000000000000000000000000000000000000000815260040161106c90613072565b60405180910390fd5b611080888688610888565b8260030160008282546110939190612c00565b92505081905550600083600401600088815260200190815260200160002060008154809291906110c290612c34565b919050559050604051806040016040528089815260200183815250846003016000898152602001908152602001600020600083815260200190815260200160002060008201518160000155602082015181600101559050508785600201600082825461112e9190612c7c565b92505081905550878460000160008282546111499190612c7c565b92505081905550878360000160008282546111649190612c7c565b925050819055507f92ff8d261b202e665b22fd3a980dc1c49c0deec329d3aaf123404e9c1cc761bc868a8a8a866040516111a2959493929190613092565b60405180910390a1505050505050505050565b61012e60009054906101000a900473ffffffffffffffffffffffffffffffffffffffff1681565b7fdf8b4c520ffe197c5343c6f5aec59570151ef9a492f2c624fd45ddde6135ec426112068161194f565b6101306040518060c001604052808873ffffffffffffffffffffffffffffffffffffffff1681526020018781526020016000815260200186815260200185815260200184815250908060018154018082558091505060019003906000526020600020906006020160009091909190915060008201518160000160006101000a81548173ffffffffffffffffffffffffffffffffffffffff021916908373ffffffffffffffffffffffffffffffffffffffff1602179055506020820151816001015560408201518160020155606082015181600301556080820151816004015560a0820151816005015550506001610130805490506113049190612c7c565b7fcd1b965b2dda00d15a9132179c35c3d96c3f4708169965ac49c35fa61c606de1878787878760405161133b9594939291906130e5565b60405180910390a2505050505050565b600080610130838154811061136357611362612ba2565b5b906000526020600020906006020160020154905080915050919050565b61138982610717565b6113928161194f565b61139c8383611a4c565b505050565b61012f60009054906101000a900473ffffffffffffffffffffffffffffffffffffffff1681565b6000339050600061013084815481106113e4576113e3612ba2565b5b906000526020600020906006020190506000610131600086815260200190815260200160002060008473ffffffffffffffffffffffffffffffffffffffff1673ffffffffffffffffffffffffffffffffffffffff1681526020019081526020016000209050600073ffffffffffffffffffffffffffffffffffffffff1661012f60009054906101000a900473ffffffffffffffffffffffffffffffffffffffff1673ffffffffffffffffffffffffffffffffffffffff16036114db576040517f08c379a00000000000000000000000000000000000000000000000000000000081526004016114d2906131aa565b60405180910390fd5b8160000160009054906101000a900473ffffffffffffffffffffffffffffffffffffffff1673ffffffffffffffffffffffffffffffffffffffff166323b872dd8461012f60009054906101000a900473ffffffffffffffffffffffffffffffffffffffff16876040518463ffffffff1660e01b815260040161155f939291906131ca565b6020604051808303816000875af115801561157e573d6000803e3d6000fd5b505050506040513d601f19601f820116820180604052508101906115a2919061322d565b5060008160010160008154809291906115ba90612c34565b9190505590506040518060a001604052808681526020014281526020016000815260200160008152602001846003015481525082600201600083815260200190815260200160002060008201518160000155602082015181600101556040820151816002015560608201518160030155608082015181600401559050508482600001600082825461164b9190612c00565b92505081905550848360020160008282546116669190612c00565b925050819055507fa409d8ca59a86e577295c166cb9ac6c56e8ffcb985535549fb38d3a36793f1aa84878784426040516116a4959493929190613092565b60405180910390a1505050505050565b6116be8282611e02565b5050565b6116ca611cbe565b600073ffffffffffffffffffffffffffffffffffffffff168173ffffffffffffffffffffffffffffffffffffffff1603611739576040517f08c379a0000000000000000000000000000000000000000000000000000000008152600401611730906132cc565b60405180910390fd5b61174281611d3c565b50565b8061012f60006101000a81548173ffffffffffffffffffffffffffffffffffffffff021916908373ffffffffffffffffffffffffffffffffffffffff16021790555050565b611792612520565b6000610131600086815260200190815260200160002060008573ffffffffffffffffffffffffffffffffffffffff1673ffffffffffffffffffffffffffffffffffffffff168152602001908152602001600020905060008160020160008581526020019081526020016000209050806040518060a001604052908160008201548152602001600182015481526020016002820154815260200160038201548152602001600482015481525050925050509392505050565b60007f01ffc9a7000000000000000000000000000000000000000000000000000000007bffffffffffffffffffffffffffffffffffffffffffffffffffffffff1916827bffffffffffffffffffffffffffffffffffffffffffffffffffffffff1916149050919050565b61194b82826040516024016118c992919061336b565b6040516020818303038152906040527fb60e72cc000000000000000000000000000000000000000000000000000000007bffffffffffffffffffffffffffffffffffffffffffffffffffffffff19166020820180517bffffffffffffffffffffffffffffffffffffffffffffffffffffffff838183161783525050505061213c565b5050565b6119608161195b611a44565b612165565b50565b61196d8282610e3f565b611a4057600160fb600084815260200190815260200160002060000160008373ffffffffffffffffffffffffffffffffffffffff1673ffffffffffffffffffffffffffffffffffffffff16815260200190815260200160002060006101000a81548160ff0219169083151502179055506119e5611a44565b73ffffffffffffffffffffffffffffffffffffffff168173ffffffffffffffffffffffffffffffffffffffff16837f2f8788117e7eff1d82e926ec794901d17c78024a50270940304540a733656f0d60405160405180910390a45b5050565b600033905090565b611a568282610e3f565b15611b2a57600060fb600084815260200190815260200160002060000160008373ffffffffffffffffffffffffffffffffffffffff1673ffffffffffffffffffffffffffffffffffffffff16815260200190815260200160002060006101000a81548160ff021916908315150217905550611acf611a44565b73ffffffffffffffffffffffffffffffffffffffff168173ffffffffffffffffffffffffffffffffffffffff16837ff6391f5c32d9c69d2a47ea670b442974b53935d1edc7fd64eb21e047a839171b60405160405180910390a45b5050565b6000808273ffffffffffffffffffffffffffffffffffffffff163b119050919050565b600060019054906101000a900460ff16611ba0576040517f08c379a0000000000000000000000000000000000000000000000000000000008152600401611b979061340d565b60405180910390fd5b565b6000611bad83610717565b90508160fb6000858152602001908152602001600020600101819055508181847fbd79b86ffe0ab8e8776151514217cd7cacd52c909f66475c3af44e129f0b00ff60405160405180910390a4505050565b611c088282611963565b5050565b600060019054906101000a900460ff16611c5b576040517f08c379a0000000000000000000000000000000000000000000000000000000008152600401611c529061340d565b60405180910390fd5b611c636121ea565b565b600060019054906101000a900460ff16611cb4576040517f08c379a0000000000000000000000000000000000000000000000000000000008152600401611cab9061340d565b60405180910390fd5b611cbc61224b565b565b611cc6611a44565b73ffffffffffffffffffffffffffffffffffffffff16611ce4610e15565b73ffffffffffffffffffffffffffffffffffffffff1614611d3a576040517f08c379a0000000000000000000000000000000000000000000000000000000008152600401611d3190613479565b60405180910390fd5b565b6000603360009054906101000a900473ffffffffffffffffffffffffffffffffffffffff16905081603360006101000a81548173ffffffffffffffffffffffffffffffffffffffff021916908373ffffffffffffffffffffffffffffffffffffffff1602179055508173ffffffffffffffffffffffffffffffffffffffff168173ffffffffffffffffffffffffffffffffffffffff167f8be0079c531659141344cd1fd0a4f28419497f9722a3daafe3b4186f6b6457e060405160405180910390a35050565b600033905060006101308481548110611e1e57611e1d612ba2565b5b906000526020600020906006020190506000610131600086815260200190815260200160002060008473ffffffffffffffffffffffffffffffffffffffff1673ffffffffffffffffffffffffffffffffffffffff168152602001908152602001600020905060008160020160008681526020019081526020016000209050600082600401600087815260200190815260200160002054905060008060005b83811015611fcb5768056bc75e2d631000006301e1338063ffffffff1686600101548860030160008d8152602001908152602001600020600085815260200190815260200160002060010154611f129190612c7c565b87600401548960030160008e8152602001908152602001600020600086815260200190815260200160002060000154611f4b9190612cb0565b611f559190612cb0565b611f5f9190612d39565b611f699190612d39565b82611f749190612c00565b91508560030160008a815260200190815260200160002060008281526020019081526020016000206000015482611fab9190612c00565b83611fb69190612c00565b92508080611fc390612c34565b915050611ebc565b506000821161200f576040517f08c379a00000000000000000000000000000000000000000000000000000000081526004016120069061350b565b60405180910390fd5b808460030160008282546120239190612c7c565b925050819055508560000160009054906101000a900473ffffffffffffffffffffffffffffffffffffffff1673ffffffffffffffffffffffffffffffffffffffff166323b872dd61012e60009054906101000a900473ffffffffffffffffffffffffffffffffffffffff1689856040518463ffffffff1660e01b81526004016120ae939291906131ca565b6020604051808303816000875af11580156120cd573d6000803e3d6000fd5b505050506040513d601f19601f820116820180604052508101906120f1919061322d565b507f1b4980d162f0e576ac2686eca7bb080c2190029d7bb8f0ed271e0004991fa3c3878a848b42604051612129959493929190613092565b60405180910390a1505050505050505050565b60008151905060006a636f6e736f6c652e6c6f679050602083016000808483855afa5050505050565b61216f8282610e3f565b6121e65761217c816122b7565b61218a8360001c60206122e4565b60405160200161219b9291906135ff565b6040516020818303038152906040526040517f08c379a00000000000000000000000000000000000000000000000000000000081526004016121dd9190613639565b60405180910390fd5b5050565b600060019054906101000a900460ff16612239576040517f08c379a00000000000000000000000000000000000000000000000000000000081526004016122309061340d565b60405180910390fd5b612249612244611a44565b611d3c565b565b600060019054906101000a900460ff1661229a576040517f08c379a00000000000000000000000000000000000000000000000000000000081526004016122919061340d565b60405180910390fd5b6000606560006101000a81548160ff021916908315150217905550565b60606122dd8273ffffffffffffffffffffffffffffffffffffffff16601460ff166122e4565b9050919050565b6060600060028360026122f79190612cb0565b6123019190612c00565b67ffffffffffffffff81111561231a5761231961365b565b5b6040519080825280601f01601f19166020018201604052801561234c5781602001600182028036833780820191505090505b5090507f30000000000000000000000000000000000000000000000000000000000000008160008151811061238457612383612ba2565b5b60200101907effffffffffffffffffffffffffffffffffffffffffffffffffffffffffffff1916908160001a9053507f7800000000000000000000000000000000000000000000000000000000000000816001815181106123e8576123e7612ba2565b5b60200101907effffffffffffffffffffffffffffffffffffffffffffffffffffffffffffff1916908160001a905350600060018460026124289190612cb0565b6124329190612c00565b90505b60018111156124d2577f3031323334353637383961626364656600000000000000000000000000000000600f86166010811061247457612473612ba2565b5b1a60f81b82828151811061248b5761248a612ba2565b5b60200101907effffffffffffffffffffffffffffffffffffffffffffffffffffffffffffff1916908160001a905350600485901c9450806124cb9061368a565b9050612435565b5060008414612516576040517f08c379a000000000000000000000000000000000000000000000000000000000815260040161250d906136ff565b60405180910390fd5b8091505092915050565b6040518060a0016040528060008152602001600081526020016000815260200160008152602001600081525090565b600080fd5b60007fffffffff0000000000000000000000000000000000000000000000000000000082169050919050565b61258981612554565b811461259457600080fd5b50565b6000813590506125a681612580565b92915050565b6000602082840312156125c2576125c161254f565b5b60006125d084828501612597565b91505092915050565b60008115159050919050565b6125ee816125d9565b82525050565b600060208201905061260960008301846125e5565b92915050565b6000819050919050565b6126228161260f565b811461262d57600080fd5b50565b60008135905061263f81612619565b92915050565b60006020828403121561265b5761265a61254f565b5b600061266984828501612630565b91505092915050565b600073ffffffffffffffffffffffffffffffffffffffff82169050919050565b6000819050919050565b60006126b76126b26126ad84612672565b612692565b612672565b9050919050565b60006126c98261269c565b9050919050565b60006126db826126be565b9050919050565b6126eb816126d0565b82525050565b6126fa8161260f565b82525050565b600060c08201905061271560008301896126e2565b61272260208301886126f1565b61272f60408301876126f1565b61273c60608301866126f1565b61274960808301856126f1565b61275660a08301846126f1565b979650505050505050565b6000819050919050565b61277481612761565b811461277f57600080fd5b50565b6000813590506127918161276b565b92915050565b6000602082840312156127ad576127ac61254f565b5b60006127bb84828501612782565b91505092915050565b6127cd81612761565b82525050565b60006020820190506127e860008301846127c4565b92915050565b60006127f982612672565b9050919050565b612809816127ee565b811461281457600080fd5b50565b60008135905061282681612800565b92915050565b600080604083850312156128435761284261254f565b5b600061285185828601612630565b925050602061286285828601612817565b9150509250929050565b600060208201905061288160008301846126f1565b92915050565b6000806000606084860312156128a05761289f61254f565b5b60006128ae86828701612630565b93505060206128bf86828701612817565b92505060406128d086828701612630565b9150509250925092565b600080604083850312156128f1576128f061254f565b5b60006128ff85828601612782565b925050602061291085828601612817565b9150509250929050565b6000806000606084860312156129335761293261254f565b5b600061294186828701612817565b935050602061295286828701612630565b925050604061296386828701612630565b9150509250925092565b612976816127ee565b82525050565b6000602082019050612991600083018461296d565b92915050565b6000602082840312156129ad576129ac61254f565b5b60006129bb84828501612817565b91505092915050565b6000806000606084860312156129dd576129dc61254f565b5b60006129eb86828701612630565b93505060206129fc86828701612630565b9250506040612a0d86828701612630565b9150509250925092565b6000612a22826127ee565b9050919050565b612a3281612a17565b8114612a3d57600080fd5b50565b600081359050612a4f81612a29565b92915050565b600080600080600060a08688031215612a7157612a7061254f565b5b6000612a7f88828901612a40565b9550506020612a9088828901612630565b9450506040612aa188828901612630565b9350506060612ab288828901612630565b9250506080612ac388828901612630565b9150509295509295909350565b60008060408385031215612ae757612ae661254f565b5b6000612af585828601612630565b9250506020612b0685828601612630565b9150509250929050565b612b198161260f565b82525050565b60a082016000820151612b356000850182612b10565b506020820151612b486020850182612b10565b506040820151612b5b6040850182612b10565b506060820151612b6e6060850182612b10565b506080820151612b816080850182612b10565b50505050565b600060a082019050612b9c6000830184612b1f565b92915050565b7f4e487b7100000000000000000000000000000000000000000000000000000000600052603260045260246000fd5b7f4e487b7100000000000000000000000000000000000000000000000000000000600052601160045260246000fd5b6000612c0b8261260f565b9150612c168361260f565b9250828201905080821115612c2e57612c2d612bd1565b5b92915050565b6000612c3f8261260f565b91507fffffffffffffffffffffffffffffffffffffffffffffffffffffffffffffffff8203612c7157612c70612bd1565b5b600182019050919050565b6000612c878261260f565b9150612c928361260f565b9250828203905081811115612caa57612ca9612bd1565b5b92915050565b6000612cbb8261260f565b9150612cc68361260f565b9250817fffffffffffffffffffffffffffffffffffffffffffffffffffffffffffffffff0483118215151615612cff57612cfe612bd1565b5b828202905092915050565b7f4e487b7100000000000000000000000000000000000000000000000000000000600052601260045260246000fd5b6000612d448261260f565b9150612d4f8361260f565b925082612d5f57612d5e612d0a565b5b828204905092915050565b600082825260208201905092915050565b7f416363657373436f6e74726f6c3a2063616e206f6e6c792072656e6f756e636560008201527f20726f6c657320666f722073656c660000000000000000000000000000000000602082015250565b6000612dd7602f83612d6a565b9150612de282612d7b565b604082019050919050565b60006020820190508181036000830152612e0681612dca565b9050919050565b7f496e697469616c697a61626c653a20636f6e747261637420697320616c72656160008201527f647920696e697469616c697a6564000000000000000000000000000000000000602082015250565b6000612e69602e83612d6a565b9150612e7482612e0d565b604082019050919050565b60006020820190508181036000830152612e9881612e5c565b9050919050565b6000819050919050565b600060ff82169050919050565b6000612ed1612ecc612ec784612e9f565b612692565b612ea9565b9050919050565b612ee181612eb6565b82525050565b6000602082019050612efc6000830184612ed8565b92915050565b7f5374616b696e67506f6f6c3a207374696c6c206c6f636b656400000000000000600082015250565b6000612f38601983612d6a565b9150612f4382612f02565b602082019050919050565b60006020820190508181036000830152612f6781612f2b565b9050919050565b7f5374616b696e67506f6f6c3a20496e73756666696369656e7420756e7374616b60008201527f6520616d6f756e74000000000000000000000000000000000000000000000000602082015250565b6000612fca602883612d6a565b9150612fd582612f6e565b604082019050919050565b60006020820190508181036000830152612ff981612fbd565b9050919050565b7f5374616b696e67506f6f6c3a20556e7374616b6520616d6f756e74206d75737460008201527f2067726561746572207468616e20300000000000000000000000000000000000602082015250565b600061305c602f83612d6a565b915061306782613000565b604082019050919050565b6000602082019050818103600083015261308b8161304f565b9050919050565b600060a0820190506130a7600083018861296d565b6130b460208301876126f1565b6130c160408301866126f1565b6130ce60608301856126f1565b6130db60808301846126f1565b9695505050505050565b600060a0820190506130fa60008301886126e2565b61310760208301876126f1565b61311460408301866126f1565b61312160608301856126f1565b61312e60808301846126f1565b9695505050505050565b7f5374616b696e67506f6f6c3a20436f6c642057616c6c6574206164647265737360008201527f206973206e6f7420616464726573732030000000000000000000000000000000602082015250565b6000613194603183612d6a565b915061319f82613138565b604082019050919050565b600060208201905081810360008301526131c381613187565b9050919050565b60006060820190506131df600083018661296d565b6131ec602083018561296d565b6131f960408301846126f1565b949350505050565b61320a816125d9565b811461321557600080fd5b50565b60008151905061322781613201565b92915050565b6000602082840312156132435761324261254f565b5b600061325184828501613218565b91505092915050565b7f4f776e61626c653a206e6577206f776e657220697320746865207a65726f206160008201527f6464726573730000000000000000000000000000000000000000000000000000602082015250565b60006132b6602683612d6a565b91506132c18261325a565b604082019050919050565b600060208201905081810360008301526132e5816132a9565b9050919050565b600081519050919050565b60005b838110156133155780820151818401526020810190506132fa565b60008484015250505050565b6000601f19601f8301169050919050565b600061333d826132ec565b6133478185612d6a565b93506133578185602086016132f7565b61336081613321565b840191505092915050565b600060408201905081810360008301526133858185613332565b905061339460208301846126f1565b9392505050565b7f496e697469616c697a61626c653a20636f6e7472616374206973206e6f74206960008201527f6e697469616c697a696e67000000000000000000000000000000000000000000602082015250565b60006133f7602b83612d6a565b91506134028261339b565b604082019050919050565b60006020820190508181036000830152613426816133ea565b9050919050565b7f4f776e61626c653a2063616c6c6572206973206e6f7420746865206f776e6572600082015250565b6000613463602083612d6a565b915061346e8261342d565b602082019050919050565b6000602082019050818103600083015261349281613456565b9050919050565b7f5374616b696e67506f6f6c3a206e6f7468696e672069732063757272656e746c60008201527f792070656e64696e67206f72206e6f74207265616c6573652079657400000000602082015250565b60006134f5603c83612d6a565b915061350082613499565b604082019050919050565b60006020820190508181036000830152613524816134e8565b9050919050565b600081905092915050565b7f416363657373436f6e74726f6c3a206163636f756e7420000000000000000000600082015250565b600061356c60178361352b565b915061357782613536565b601782019050919050565b600061358d826132ec565b613597818561352b565b93506135a78185602086016132f7565b80840191505092915050565b7f206973206d697373696e6720726f6c6520000000000000000000000000000000600082015250565b60006135e960118361352b565b91506135f4826135b3565b601182019050919050565b600061360a8261355f565b91506136168285613582565b9150613621826135dc565b915061362d8284613582565b91508190509392505050565b600060208201905081810360008301526136538184613332565b905092915050565b7f4e487b7100000000000000000000000000000000000000000000000000000000600052604160045260246000fd5b60006136958261260f565b9150600082036136a8576136a7612bd1565b5b600182039050919050565b7f537472696e67733a20686578206c656e67746820696e73756666696369656e74600082015250565b60006136e9602083612d6a565b91506136f4826136b3565b602082019050919050565b60006020820190508181036000830152613718816136dc565b905091905056fea26469706673582212201ac14ddd9075e659666757e985550582d370b2eddbf3020fdcf6735237f1aebf64736f6c63430008100033",
  "immutableReferences": {},
  "source": "//SPDX-License-Identifier: MIT\r\npragma solidity 0.8.16;\r\nimport \"@openzeppelin/contracts-upgradeable/token/ERC20/IERC20Upgradeable.sol\";\r\nimport \"@openzeppelin/contracts-upgradeable/token/ERC20/utils/SafeERC20Upgradeable.sol\";\r\nimport \"@openzeppelin/contracts-upgradeable/access/OwnableUpgradeable.sol\";\r\nimport \"@openzeppelin/contracts-upgradeable/proxy/utils/Initializable.sol\";\r\nimport \"@openzeppelin/contracts-upgradeable/security/ReentrancyGuardUpgradeable.sol\";\r\nimport \"@openzeppelin/contracts-upgradeable/utils/math/SafeCastUpgradeable.sol\";\r\nimport \"@openzeppelin/contracts-upgradeable/utils/structs/EnumerableSetUpgradeable.sol\";\r\nimport \"@openzeppelin/contracts-upgradeable/security/PausableUpgradeable.sol\";\r\nimport \"@openzeppelin/contracts-upgradeable/access/AccessControlUpgradeable.sol\";\r\nimport \"hardhat/console.sol\";\r\n\r\ncontract StakingPool is\r\n    Initializable,\r\n    OwnableUpgradeable,\r\n    PausableUpgradeable,\r\n    ReentrancyGuardUpgradeable,\r\n    AccessControlUpgradeable\r\n{\r\n    using SafeERC20Upgradeable for IERC20Upgradeable;\r\n    // hash role admin\r\n    bytes32 public constant ADMIN = keccak256(\"ADMIN\");\r\n\r\n    // hash role super admin\r\n    bytes32 public constant SUPER_ADMIN = keccak256(\"SUPER_ADMIN\");\r\n\r\n    uint32 private constant ONE_YEAR = 365 days;\r\n\r\n    uint256 private _value;\r\n\r\n    // The reward distribution address\r\n    address public rewardDistributor;\r\n\r\n    // address to receive the money\r\n    address public coldWalletAddress;\r\n\r\n    // info each pool\r\n    StakingPoolInfo[] public poolInfo;\r\n\r\n    //data staking of user in a pool\r\n    mapping(uint256 => mapping(address => StakingData)) userStakingData;\r\n\r\n    // pool info\r\n    struct StakingPoolInfo {\r\n        IERC20Upgradeable acceptedToken;\r\n        uint256 cap;\r\n        uint256 totalStaked;\r\n        uint256 APR;\r\n        uint256 lockDuration;\r\n        uint256 delayDuration;\r\n    }\r\n\r\n    // data staking in user\r\n    struct UserStakingData {\r\n        uint256 balance;\r\n        uint256 stakeTime;\r\n        uint256 lastClaimTime;\r\n        uint256 pendingReward;\r\n        uint256 APR;\r\n    }\r\n\r\n    // data withdraw of user\r\n    struct UserPendingWithdrawl {\r\n        uint256 amount;\r\n        uint256 applicableAt;\r\n    }\r\n\r\n    // data of all user\r\n    struct StakingData {\r\n        uint256 balance;\r\n        uint256 stakingDataRecordCount;\r\n        mapping(uint256 => UserStakingData) stakingDatas;\r\n        mapping(uint256 => mapping(uint256 => UserPendingWithdrawl)) totalWithdrawals;\r\n        mapping(uint256 => uint256) totalWithdrawalsCount;\r\n    }\r\n\r\n    event StakingPoolCreate(\r\n        uint256 indexed poolId,\r\n        IERC20Upgradeable acceptedToken,\r\n        uint256 cap,\r\n        uint256 APR,\r\n        uint256 lockDuration,\r\n        uint256 delayDuration      \r\n    );\r\n\r\n    event StakingPoolDeposit(address account, uint256 poolId, uint256 amount, uint256 stakedId, uint256 time);\r\n    event StakingPoolWithdraw(address account, uint256 poolId, uint256 amount, uint256 stakedId, uint256 time);\r\n    event StakingPoolClaimReward(address account, uint256 poolId, uint256 totalReward, uint256 stakedId, uint256 time);\r\n\r\n    function __StakingPool_init() public initializer {\r\n        __AccessControl_init(); \r\n        _setRoleAdmin(ADMIN, SUPER_ADMIN);\r\n        _setupRole(SUPER_ADMIN, msg.sender);\r\n        _setupRole(ADMIN, msg.sender);\r\n        // set owner is msg.sender\r\n        __Ownable_init(); \r\n\r\n        // stop contract\r\n        __Pausable_init();\r\n\r\n        coldWalletAddress = address(0x306366DE0bF312786C0af82089Fc914eF578fe0c);\r\n    }\r\n\r\n    function store(uint256 value) public {\r\n        _value = value;\r\n    }\r\n    \r\n    function retrieve() public view returns(uint256) {\r\n        return _value;\r\n    }\r\n\r\n    \r\n\r\n    function createPool(\r\n        IERC20Upgradeable _acceptedToken,\r\n        uint256 _cap,\r\n        // uint256 _minInvestment,\r\n        // uint256 _maxInvestment,\r\n        uint256 _APR,\r\n        uint256 _lockDuration,\r\n        uint256 _delayDuration\r\n    ) external onlyRole(ADMIN) {\r\n        poolInfo.push(\r\n            StakingPoolInfo({\r\n                acceptedToken: _acceptedToken,\r\n                cap: _cap,\r\n                totalStaked: 0,\r\n                // minInvestment: _minInvestment,\r\n                // maxInvestment: _maxInvestment,\r\n                APR: _APR,\r\n                lockDuration: _lockDuration,\r\n                delayDuration: _delayDuration\r\n            })\r\n        );\r\n        emit StakingPoolCreate(\r\n            poolInfo.length - 1,\r\n            _acceptedToken,\r\n            _cap,\r\n             _APR,\r\n            _lockDuration,\r\n            _delayDuration  \r\n        );\r\n    }\r\n\r\n    function deposit(uint256 _poolId, uint256 _amount) external {\r\n        address account = msg.sender;\r\n\r\n        StakingPoolInfo storage pool = poolInfo[_poolId];\r\n        StakingData storage user = userStakingData[_poolId][account];\r\n\r\n        require(\r\n            coldWalletAddress != address(0),\r\n            \"StakingPool: Cold Wallet address is not address 0\"\r\n        );\r\n\r\n        pool.acceptedToken.transferFrom(account, coldWalletAddress, _amount);\r\n        \r\n        uint256 recordId = user.stakingDataRecordCount++;\r\n        user.stakingDatas[recordId] = UserStakingData({\r\n            balance: _amount,\r\n            stakeTime: block.timestamp,\r\n            lastClaimTime: 0,\r\n            pendingReward: 0,\r\n            APR: pool.APR\r\n        });\r\n        user.balance += _amount;\r\n        pool.totalStaked += _amount;\r\n\r\n        emit StakingPoolDeposit(account, _poolId, _amount, recordId, block.timestamp);\r\n    }\r\n\r\n    function withdraw(uint256 _poolId, uint256 _amount, uint256 _stakedId) external {\r\n        address account = msg.sender;\r\n        StakingPoolInfo storage pool = poolInfo[_poolId];\r\n        StakingData storage user = userStakingData[_poolId][account];\r\n        UserStakingData storage userStaking = user.stakingDatas[_stakedId];\r\n\r\n        uint256 currentTime = block.timestamp;\r\n        require(\r\n            currentTime >= userStaking.stakeTime + pool.lockDuration,\r\n            \"StakingPool: still locked\"\r\n        );\r\n\r\n        require(\r\n            _amount <= userStaking.balance,\r\n            \"StakingPool: Insufficient unstake amount\"\r\n        );\r\n\r\n        require(_amount > 0, \"StakingPool: Unstake amount must greater than 0\");\r\n\r\n        userStaking.pendingReward += _getPendingReward(_poolId, account, _stakedId);\r\n\r\n        uint256 countWithdrawal = user.totalWithdrawalsCount[_stakedId]++;\r\n        user.totalWithdrawals[_stakedId][countWithdrawal] = UserPendingWithdrawl({amount: _amount, applicableAt: currentTime});\r\n\r\n\r\n        pool.totalStaked -= _amount;\r\n        user.balance -= _amount;\r\n        userStaking.balance -= _amount;\r\n        \r\n        emit StakingPoolWithdraw(account, _poolId, _amount, _stakedId, currentTime);\r\n    } \r\n\r\n    function claimRewardPool(uint256 _poolId, uint256 _stakedId) external {\r\n        _claimReward(_poolId, _stakedId);\r\n    }\r\n\r\n    function _claimReward(uint256 _poolId, uint256 _stakedId) private {\r\n        address account = msg.sender;\r\n        StakingPoolInfo storage pool = poolInfo[_poolId]; \r\n        StakingData storage user = userStakingData[_poolId][account];\r\n        UserStakingData storage userStaking = user.stakingDatas[_stakedId];\r\n\r\n        uint256 countWithdrawal = user.totalWithdrawalsCount[_stakedId];\r\n        uint256 totalToken = 0;\r\n        uint256 totalReward = 0;\r\n        for(uint256 i = 0; i < countWithdrawal; i++) {\r\n            totalReward += ((user.totalWithdrawals[_stakedId][i].amount * userStaking.APR * (user.totalWithdrawals[_stakedId][i].applicableAt - userStaking.stakeTime)) / ONE_YEAR) / 1e20;\r\n            totalToken += totalReward + user.totalWithdrawals[_stakedId][i].amount;\r\n        }\r\n\r\n        // uint256 rewardAmount = user.totalWithdrawals[_stakedId][countWithdrawal];\r\n        // console.log('totalReward: ',totalReward);\r\n        require(\r\n            totalToken > 0,\r\n            \"StakingPool: nothing is currently pending or not realese yet\"\r\n        );\r\n\r\n        userStaking.pendingReward -= totalReward;\r\n\r\n        pool.acceptedToken.transferFrom(rewardDistributor, account, totalToken  );\r\n\r\n        emit StakingPoolClaimReward(account, _poolId, totalToken , _stakedId, block.timestamp);\r\n    }\r\n\r\n    function totalStakedOfPool(uint256 _poolId) external view returns(uint256 totalStaked) {\r\n        uint256 totalStaked = poolInfo[_poolId].totalStaked;\r\n        return totalStaked;\r\n    }\r\n\r\n    function _getPendingReward(uint256 _poolId, address _account, uint256 _stakedId) public view returns(uint256 pendingReward) {\r\n        StakingData storage user = userStakingData[_poolId][_account];\r\n        UserStakingData storage userStaking = user.stakingDatas[_stakedId];\r\n\r\n        console.log('userStaking.balance:',userStaking.balance);\r\n        uint256 timeInSecond = block.timestamp  - userStaking.stakeTime;\r\n        uint256 pendingReward = ((userStaking.balance * userStaking.APR * timeInSecond) / ONE_YEAR) / 1e20;\r\n        return pendingReward;\r\n    }\r\n\r\n    function getPendingReward(uint256 _poolId, address _account, uint256 _stakedId) external view returns(uint256) {\r\n        StakingData storage user = userStakingData[_poolId][_account];\r\n        UserStakingData storage userStaking = user.stakingDatas[_stakedId];\r\n        // uint256 pendingReward = userStaking.pendingReward;\r\n        // return pendingReward;\r\n        uint256 pendingReward = _getPendingReward(_poolId, _account, _stakedId) + userStaking.pendingReward;\r\n        return pendingReward;\r\n    }\r\n\r\n    function getTotalReward(uint256 _poolId, address _account) external view returns(uint256 totalReward) {\r\n        StakingPoolInfo storage pool = poolInfo[_poolId];\r\n        StakingData storage user = userStakingData[_poolId][_account];\r\n\r\n        uint256 len = user.stakingDataRecordCount;\r\n        console.log('len: ',len);\r\n        uint256 totalReward = 0;\r\n        for(uint256 i = 0; i < len; i++) {\r\n            totalReward += _getPendingReward(_poolId, _account, i) + user.stakingDatas[i].pendingReward;\r\n        }\r\n        \r\n        return totalReward;\r\n    }\r\n\r\n    function getInfoStaking(uint256 _poolId, address _account, uint256 _stakedId) external view returns(UserStakingData memory) {\r\n        StakingData storage user = userStakingData[_poolId][_account];\r\n        UserStakingData storage userStaking = user.stakingDatas[_stakedId];\r\n        return userStaking;\r\n    }\r\n\r\n\r\n\r\n    function setRewardDistributor(address _account) external {\r\n        rewardDistributor = _account;    \r\n    }\r\n\r\n    function setColdWalletAddress(address _account) external {\r\n        coldWalletAddress = _account;\r\n    }\r\n\r\n    function getBalanceOfStakingPool(address _account, uint256 _poolId, uint256 _stakedId) external view returns (uint256) {\r\n        StakingData storage user = userStakingData[_poolId][_account];\r\n        UserStakingData storage userStaking = user.stakingDatas[_stakedId];\r\n        return userStaking.balance;\r\n    }\r\n\r\n    function version() public pure returns (uint256) {\r\n        return 1;\r\n    }\r\n}",
  "sourcePath": "D:\\WorkSpace\\Jobs\\Staking\\Staking_SC\\contracts\\StakingPool.sol",
  "compiler": {
    "name": "solc",
    "version": "0.8.16+commit.07a7930e.Emscripten.clang"
  },
  "schemaVersion": "3.4.9",
  "updatedAt": "2022-10-31T10:57:03.862Z",
  "networkType": "ethereum",
  "devdoc": {
    "kind": "dev",
    "methods": {
      "getRoleAdmin(bytes32)": {
        "details": "Returns the admin role that controls `role`. See {grantRole} and {revokeRole}. To change a role's admin, use {_setRoleAdmin}."
      },
      "grantRole(bytes32,address)": {
        "details": "Grants `role` to `account`. If `account` had not been already granted `role`, emits a {RoleGranted} event. Requirements: - the caller must have ``role``'s admin role. May emit a {RoleGranted} event."
      },
      "hasRole(bytes32,address)": {
        "details": "Returns `true` if `account` has been granted `role`."
      },
      "owner()": {
        "details": "Returns the address of the current owner."
      },
      "paused()": {
        "details": "Returns true if the contract is paused, and false otherwise."
      },
      "renounceOwnership()": {
        "details": "Leaves the contract without owner. It will not be possible to call `onlyOwner` functions anymore. Can only be called by the current owner. NOTE: Renouncing ownership will leave the contract without an owner, thereby removing any functionality that is only available to the owner."
      },
      "renounceRole(bytes32,address)": {
        "details": "Revokes `role` from the calling account. Roles are often managed via {grantRole} and {revokeRole}: this function's purpose is to provide a mechanism for accounts to lose their privileges if they are compromised (such as when a trusted device is misplaced). If the calling account had been revoked `role`, emits a {RoleRevoked} event. Requirements: - the caller must be `account`. May emit a {RoleRevoked} event."
      },
      "revokeRole(bytes32,address)": {
        "details": "Revokes `role` from `account`. If `account` had been granted `role`, emits a {RoleRevoked} event. Requirements: - the caller must have ``role``'s admin role. May emit a {RoleRevoked} event."
      },
      "supportsInterface(bytes4)": {
        "details": "See {IERC165-supportsInterface}."
      },
      "transferOwnership(address)": {
        "details": "Transfers ownership of the contract to a new account (`newOwner`). Can only be called by the current owner."
      }
    },
    "version": 1
  },
  "userdoc": {
    "kind": "user",
    "methods": {},
    "version": 1
  }
}